:020000040800F2
:100000000035002419500008394A0008055000083E
:1000100005500008055000080550000800000000C9
:10002000000000000000000000000000595100081E
:10003000055000080000000025510008097900085B
:10004000D5520008D5520008D5520008D5520008F4
:10005000D5520008D5520008D5520008D5520008E4
:10006000D5520008D5520008D5520008D5520008D4
:10007000D5520008D5520008D5520008D5520008C4
:0402CC00FFFFFFFF32
:1002D00080F0004002E000BF81F0004142001FBFFB
:1002E0005FEA410392EA030F7FEA226C7FEA236C04
:1002F0006AD04FEA1262D2EB1363C1BFD2184140F9
:1003000048404140B8BF5B42192B88BF704710F08E
:10031000004F40F4000020F07F4018BF404211F031
:10032000004F41F4000121F07F4118BF494292EA99
:10033000030F3FD0A2F1010241FA03FC10EB0C00C5
:10034000C3F1200301FA03F100F0004302D5494252
:1003500060EB4000B0F5000F13D3B0F1807F06D3FF
:1003600040084FEA310102F10102FE2A51D2B1F1F7
:10037000004F40EBC25008BF20F0010040EA0300EC
:100380007047490040EB0000013A28BFB0F5000F6C
:10039000EDD2B0FA80FCACF1080CB2EB0C0200FA22
:1003A0000CF0AABF00EBC25052421843BCBFD04071
:1003B0001843704792F0000F81F4000106BF80F4EB
:1003C00000000132013BB5E74FEA41037FEA226CAE
:1003D00018BF7FEA236C21D092EA030F04D092F079
:1003E000000F08BF0846704790EA010F1CBF0020AD
:1003F000704712F07F4F04D1400028BF40F000400A
:10040000704712F100723CBF00F50000704700F029
:10041000004343F0FE4040F4000070477FEA226250
:1004200016BF08467FEA23630146420206BF5FEA21
:10043000412390EA010F40F4800070474FF0000321
:1004400004E000BF10F0004348BF40425FEA000CE8
:1004500008BF704743F0964301464FF000001CE090
:1004600050EA010208BF70474FF000030AE000BFE6
:1004700050EA010208BF704711F0004302D5404224
:1004800061EB41015FEA010C02BF84460146002096
:1004900043F0B64308BFA3F18053A3F50003BCFAB1
:1004A0008CF2083AA3EBC25310DB01FA02FC63445E
:1004B00000FA02FCC2F12002BCF1004F20FA02F265
:1004C00043EB020008BF20F00100704702F1200258
:1004D00001FA02FCC2F1200250EA4C0021FA02F2B9
:1004E00043EB020008BF20EADC7070474FF0FF0CBE
:1004F0001CEAD0521EBF1CEAD15392EA0C0F93EAB9
:100500000C0F6FD01A4480EA010C400218BF5FEA5A
:1005100041211ED04FF0006343EA501043EA5111CD
:10052000A0FB01310CF00040B1F5000F3EBF4900C7
:1005300041EAD3715B0040EA010062F17F02FD2ACB
:100540001DD8B3F1004F40EBC25008BF20F00100AE
:10055000704790F0000F0CF0004C08BF49024CEAC5
:10056000502040EA51207F3AC2BFD2F1FF0340EA57
:10057000C250704740F400004FF00003013A5DDCC8
:1005800012F1190FDCBF00F000407047C2F1000209
:10059000410021FA02F1C2F1200200FA02FC5FEAF6
:1005A000310040F1000053EA4C0308BF20EADC7040
:1005B000704792F0000F00F0004C02BF400010F4B2
:1005C000000F013AF9D040EA0C0093F0000F01F05F
:1005D000004C02BF490011F4000F013BF9D041EA81
:1005E0000C018FE70CEAD15392EA0C0F18BF93EA83
:1005F0000C0F0AD030F0004C18BF31F0004CD8D1AD
:1006000080EA010000F00040704790F0000F17BF33
:1006100090F0004F084691F0000F91F0004F14D079
:1006200092EA0C0F01D142020FD193EA0C0F03D1D1
:100630004B0218BF084608D180EA010000F00040D4
:1006400040F0FE4040F40000704740F0FE4040F4AF
:10065000400070474FF0FF0C1CEAD0521EBF1CEA4E
:10066000D15392EA0C0F93EA0C0F69D0A2EB03026C
:1006700080EA010C49024FEA402037D04FF0805306
:1006800043EA111143EA10130CF000408B4238BFCB
:100690005B0042F17D024FF4000C8B4224BF5B1AD9
:1006A00040EA0C00B3EB510F24BFA3EB510340EA27
:1006B0005C00B3EB910F24BFA3EB910340EA9C00D5
:1006C000B3EBD10F24BFA3EBD10340EADC001B0145
:1006D00018BF5FEA1C1CE0D1FD2A3FF650AF8B42E9
:1006E00040EBC25008BF20F0010070470CF0004CF6
:1006F0004CEA50207F32C2BFD2F1FF0340EAC25021
:10070000704740F400004FF00003013A37E792F0E1
:10071000000F00F0004C02BF400010F4000F013A3F
:10072000F9D040EA0C0093F0000F01F0004C02BF3A
:10073000490011F4000F013BF9D041EA0C0195E7A3
:100740000CEAD15392EA0C0F08D142027FF47DAF3C
:1007500093EA0C0F7FF470AF084676E793EA0C0F2C
:1007600004D14B023FF44CAF08466EE730F0004C2A
:1007700018BF31F0004CCAD130F000427FF45CAFBA
:1007800031F000437FF43CAF5FE700BF42000ED280
:10079000B2F1FE4F0BD34FF09E03B3EB126209D4BC
:1007A0004FEA002343F0004323FA02F070474FF072
:1007B0000000704712F1610F01D1420202D14FF0E7
:1007C000FF3070474FF00000704700BF7BB972B92F
:1007D0000029BEBF00204FF0004106E008BF0028FE
:1007E0001CBF6FF000414FF0FF3000F057B8ADF183
:1007F000080C6DE904CE002909DB002B1ADB00F0A0
:1008000069F8DDF804E0DDE9022304B070474042F6
:1008100061EB4101002B1BDB00F05CF8DDF804E02C
:10082000DDE9022304B0404261EB4101524263EB37
:1008300043037047524263EB430300F04BF8DDF88B
:1008400004E0DDE9022304B0404261EB410170475E
:10085000524263EB430300F03DF8DDF804E0DDE9CC
:10086000022304B0524263EB4303704753B94AB9C1
:10087000002908BF00281CBF4FF0FF314FF0FF30A8
:1008800000F00CB8ADF1080C6DE904CE00F022F8D0
:10089000DDF804E0DDE9022304B07047704700BFD3
:1008A00010F8012B11F8013B012A28BF9A42F7D01A
:1008B000D01A7047034611F8012B03F8012B002AC8
:1008C000F9D17047034613F8012B002AFBD1181AFF
:1008D000013870472DE9F04786468C460846089E49
:1008E000154674461946002B40F0C2808542B2FA84
:1008F00082F245D94AB1C2F1200300FA02FC2EFA75
:1009000003F3954043EA0C0C94404FEA154EA8B20D
:10091000BCFBFEF8230C0EFB18CC08FB00F943EAE5
:100920000C43994528D9EB1808F1FF3704D29945B3
:1009300002D9A8F102072B44A3EB0903A4B2B3FB2D
:10094000FEFC0EFB1C330CFB00F044EA0344A04207
:1009500014D92C190CF1FF3304D2A04202D9ACF106
:1009600002032C44241A43EA07401EB1D44000235A
:1009700034607360BDE8F0874746DDE76346F1E722
:1009800092BB431B01214FEA154EAFB2B3FBFEFCF5
:10099000200C0EFB1C330CFB07F840EA0343984580
:1009A00062D9EB180CF1FF3004D2984502D9ACF1B2
:1009B00002002B44A3EB0803A4B2B3FBFEFC0EFB26
:1009C0001C330CFB07F744EA0344A7424ED92C1909
:1009D0000CF1FF3304D2A74202D9ACF102032C443C
:1009E000E41B43EA0040C0E7C2F1200320FA03F110
:1009F000954090402EFA03F303434FEA154EAFB2F1
:100A0000B1FBFEFC0EFB1C10190C0CFB07F841EAB5
:100A10000041884504FA02F422D969180CF1FF302C
:100A200004D2884502D9ACF102002944A1EB0801A7
:100A30009BB2B1FBFEFC0EFB1C110CFB07F743EA5B
:100A400001439F420ED9EB180CF1FF3104D29F42B3
:100A500002D9ACF102012B44DB1B41EA004192E7D1
:100A60006046E3E76146F7E76046A3E76346B7E71A
:100A7000834206D916B9002108467BE7C6E900E0A3
:100A8000F9E7B3FA83F78FB9834201D3724508D8E7
:100A9000BEEB020460EB030301209C461EB900215B
:100AA00068E73846FAE7C6E9004CF8E7C7F1200CDA
:100AB000BB4022FA0CF41C432EFA0CF120FA0CF382
:100AC000B84001434FEA14490EFA07F5B3FBF9F8B1
:100AD0001FFA84FE09FB18300B0C08FB0EFA43EAE0
:100AE00000439A4502FA07F240D9E31808F1FF30B3
:100AF00004D29A4502D9A8F102002344A3EB0A03C9
:100B000089B2B3FBF9F809FB183308FB0EFE41EA82
:100B100003418E452CD9611808F1FF3304D28E456C
:100B200002D9A8F10203214443EA0040A0FB029845
:100B3000A1EB0E014145CE46434602D306D14D45B9
:100B400004D2B9EB020E68EB04030138002EA6D0E4
:100B5000B5EB0E0261EB030101FA0CFC22FA07F37C
:100B60004CEA0303F940C6E9003198E74046C5E77F
:100B70004346D9E7000000002DE9F047044688B05D
:100B80008846174610F041FA0A220023FFF76EFE4E
:100B9000B8F1010F06460D4607D102460B46204626
:100BA00027490CF0B7FB002011E07F682548394643
:100BB000FFF776FE70B139462348FFF771FE48B162
:100BC00020463A4621490CF0C1FB6FF0040008B002
:100BD000BDE8F0873046294617A3D3E90023FFF785
:100BE000F5FD06460D4610461946194A0023FFF743
:100BF000EDFD80460F46104619464EF66022002352
:100C0000FFF7E4FD82468946104619464FF47A7292
:100C10000023FFF7DBFDCDE902A9CDE90623CDE9ED
:100C2000040132462B460B492046CDE900870CF0E3
:100C300071FBB8E7AFF30080005C26050000000000
:100C40008A2E01089B2E01089E2E0108A72E01085E
:100C500080EE3600BF2E010800232DE9F341014646
:100C600005466846CDE9003304F034FF044640B140
:100C70000246294616480BF0FBFC204602B0BDE8B0
:100C8000F0812946134D2646DFF84C806F1C13482F
:100C90000BF0EEFC0F49684604F084FF044680B96F
:100CA0006B7873B12B78012B05D139460C480BF0CA
:100CB000DFFC0136EEE72A69394640460BF0D8FCE6
:100CC000F7E76846002C08BF344604F0E3FFD4E79A
:100CD0000E280108100F00244928010829280108BE
:100CE0003E2801082DE9F043DFF86C8115468BB0F2
:100CF0000646D8F80C703846FFF7E4FD6D680446E8
:100D00002846FFF7DFFD2044023004F0C3FC044610
:100D100040B93B46514A0121304600950CF0EDFAAE
:100D2000012532E03946FFF7C5FD4D49204610F058
:100D300029FB2946204610F025FB2346494A082175
:100D400030460CF0DAFA404605F054F8054630B16A
:100D500045480BF08DFC204604F0B6FC15E0CDE9CB
:100D600002008DF810000122214602A804F0E4FDE3
:100D7000071E0EDA304623463C4A012100970CF04C
:100D8000BCFA204604F0A0FC3D4628460BB0BDE866
:100D9000F08305A9204604F0E7FF071E0BDA344A6A
:100DA000012130460CF0A9FA204604F08DFC02A87F
:100DB00004F054FEE8E7099B08212E4A30460CF067
:100DC0009CFADDF82490484604F064FC074658B9C4
:100DD000294A012130460CF090FA204604F074FCB8
:100DE00002A804F03BFE9BE701464A4602A804F035
:100DF00053FEB0F1000812DA2346204A01213046A2
:100E0000CDF8008045460CF078FA384604F05CFCDA
:100E1000204604F059FC02A804F020FEB5E7434642
:100E20003046174A08210CF068FAB9F1FE0F3B462C
:100E3000144A4FF0080198BF07F8095030460CF0EB
:100E40005CFA384604F040FC02A804F007FE0248B1
:100E500005F09AF87FE700BF000000246128010830
:100E60002F2D01089A280108AC280108C328010881
:100E7000D5280108F22801080129010833290108B1
:100E80004A2901086429010870B5194B86B0044647
:100E90000D468DF80800186802AB8DF80910039311
:100EA000022304938DF814309DF8143003A982684E
:100EB00043F002038DF81430182396680122B047DE
:100EC000031E0C480ADA0268520705D00A4A0121BB
:100ED000009323460BF0BAFF06B070BD036803F021
:100EE0000703022BF8D9054A234603210095F1E7B1
:100EF000240F0024D0020024722901089929010836
:100F000000213E4A08B53E4B08461A60FFF7BCFF79
:100F100001210846FFF7B8FF03210420FFF7B4FFC3
:100F200008210620FFF7B0FF00210720FFF7ACFFE4
:100F300000210820FFF7A8FF91210520FFF7A4FF5B
:100F400088210B20FFF7A0FF82210C20FFF79CFFD8
:100F500000210D20FFF798FF80210E20FFF794FF5E
:100F600000211B20FFF790FF10213C20FFF78CFF92
:100F700008210020FFF788FF04210120FFF784FFEC
:100F800080210020FFF780FF01210020FFF77CFF78
:100F900004211F20FFF778FF4E212120FFF774FF67
:100FA00040212320FFF770FF06212820FFF76CFF68
:100FB0001C212A20FFF768FF82211F20FFF764FF12
:100FC000C6212020FFF760FF92212420FFF75CFF5D
:100FD00092212620FFF758FF00210846FFF754FF13
:100FE00094213F20FFF750FFD4214120FFF74CFF11
:100FF00004214020BDE80840FFF746BF3017010834
:10100000240F00242DE9F041A4B07B4C00AFFFF782
:1010100077FF00220621794801F0BAFB18B3236854
:101020005E0704D0764A012120460BF0FCFEDFF873
:10103000D481754E4046C8F80C6004F0DBFE0028F1
:1010400040F0D58071480BF013FB404604F09CFF44
:101050000546002845D06E480BF00AFB284690371D
:10106000BD46BDE8F0813A1D0121644801F090FBC6
:10107000236818B15D07DAD0664AD4E703F00703A6
:10108000022B05D97B68644A032120460BF0D4FE6D
:1010900007F110020221594801F07AFB054630B1F0
:1010A00023685807C3D05D4A01215348BDE7396919
:1010B0005B480BF0DDFA7B6839695A48A3FB0131C4
:1010C0001B0D43EA01310BF0D3FA2A4607214B48A6
:1010D00001F05EFB0028AAD023685907A7D0524A26
:1010E000E2E7404604F086FE054608B14F48B3E704
:1010F0003046FFF7B1FD0346002845D1226838731A
:1011000002F00702022AC7E9010011D96D4688B032
:101110006A464749C2E905164FF400719183454973
:1011200042F8101F4FF4E651334801F041F8AD4644
:101130008022354907F1100010F052F92F233E4963
:1011400007F11500BB8210F01DF91022381DB918E7
:1011500004F0F2FB054600B323685A0714D06C462E
:1011600088B06A46354B536107F1100393614FF421
:10117000007393832F4B42F8103F00234FF4E2514A
:101180001D4801F015F8A5461E4804F0FDFE00219B
:1011900042F210700AF050F8F9E7381D04F05EFCD6
:1011A000274907F115007D7510F0ECF807F11000E4
:1011B00004F092FDB8B123685B0714D06C4688B088
:1011C0006A46204B536107F1100393614FF400739B
:1011D0009383184B42F8103F4FF4E2512B460648D8
:1011E00000F0E6FFA5460848FFF736FDCCE71648B5
:1011F0000BF03EFAC8E700BFD0020024BA2901086C
:10120000BD290108000000244F2A0108542A0108C2
:10121000632A0108D1290108EC290108FB290108EA
:10122000152A0108252A0108392A0108AC280108D5
:101230007A2A0108030000019A2A0108A32A01085A
:10124000BC2A0108C12A0108D92A01082DE9F04F5A
:1012500091B0840705460E46009302F00403DDF8C2
:1012600068900293C2F3C203039203F10103059352
:1012700040F0BA81041D30B1072909D86FF01B0076
:1012800011B0BDE8F08F01F00706341DC6F1080665
:10129000009B4FF000084FF0040A591E4FF0FF3337
:1012A0004746C34601935346CDF810800DB1009ACE
:1012B00022600598002800F3E8809848009A82424E
:1012C00003D397488242C0F0E080039AA4EB050E56
:1012D00092074FEA9E0000F103810F2F00F2B180C8
:1012E000002D00F0058107F140020DEB020C019A80
:1012F0000CF8200C0CF8102C049801300490E7E056
:101300007A285DD84B280ED8472859D829282DD8B7
:10131000252852D054D820287AD02338D0F1000B79
:101320004BEB000B74E04C382E2849D8DFE800F076
:101330007048484848484848484848484B48484802
:10134000484848484859484B4B595959704B6D4883
:101350007048184B184848827F4B48484B487F00DC
:1013600000204FF0000B4FF0040A38E02A38012229
:10137000C0B202FA00F010EA0E0F49D110F0625C20
:101380002FD110EA020B43D06046013C5444B4FB19
:10139000FAF40AFB04F4002D61D0A3EB050CA4447D
:1013A000B4453FF66BAF002868D1042B47D159F8FC
:1013B000043B2360043404232AE0019A013A019299
:1013C0004FF0000B24E011F8010C6C2834D111F817
:1013D000023C00206C2B8346C5D14FF0080A5346CF
:1013E000D3E709F10709073429F0070924F00704B6
:1013F000F9E802AB35B106982044B0423FF63EAF63
:10140000C4E900AB08344FF0000B4FF0080A534614
:1014100011F8010F002878D0BBF1000F7FF470AFF6
:101420002528F5D1019B4FF0010B013301934FF0BB
:10143000040AECE7584694E700208346A5E7082B0A
:1014400002D06FF015001BE709F1070929F0070921
:10145000F9E80223C4E9002308340823D8E768B96F
:10146000042B02D109F10409A4E7082BE9D109F101
:10147000070929F0070909F10809EDE7059A013A7A
:10148000059259F8042B009210E7039A900720D593
:10149000A4EB050E4FF0010C4FEA9E00BEF5007F55
:1014A000CFD20F2FCDD8F5B107F14002C0B20DEB6E
:1014B000020E019A0EF8200C0EF8102CBCF1000F51
:1014C0003FF41AAF60F07F0008F101080EF8200C1D
:1014D0000137C5F1080204344FF6DA7E069297E729
:1014E0004FF0000CDAE7BCF1000F01D00136EFE756
:1014F000029802360028EBD10098CDE90631FFF7BB
:10150000E1F90644DDE90631E2E7631BB3F5806FDC
:1015100097D23DB9A6F10804E018B1E61815010804
:10152000604C01089B08029A28602B709DF81030CF
:10153000C2B1EB7085F80280B8F1000F05D008A8A1
:101540000022C5F1010C97420ED1C5F101030DF146
:1015500020094FF0000A0DF1300B0193574512D1CD
:10156000601B8DE66B70E5E710F8013B190608D5A6
:1015700004EB0C0E03F07F03B6453FF67FAE04F894
:10158000013B0132DFE7B8F1000F03D099F90020E9
:10159000002A17DB029BD3B11AF80B2004F8012BA9
:1015A0000022019B98182044B0423FF667AE99F89C
:1015B0000000009904F8010B204603920FF0A2FEF0
:1015C000039A14440AF1010A09F10109C6E799F8DE
:1015D000002055F822300093029B009845F82230F5
:1015E000FFF770F9421CDCE76FF00D0048E600BF22
:1015F0002DE9F04F97B00446894600AF90F802A05D
:10160000D7F880B03B62CBF3C003FA62BB6141B94B
:10161000457800780AEB800020444D4517D8A0EBB0
:101620000409E378FB61BAF1000F02D01BF0010F4F
:1016300016D1FB6953BBFB6A1BB13A6A4946204687
:1016400098474D4628465C37BD46BDE8F08F461C9E
:1016500009F101093046FFF735F901303044DCE784
:101660002378626899007A62FA6A796104EB8301EF
:10167000002A40F004814D460E4601EB0A094FF066
:1016800000084E4550D101EB0A0610E01BF0020F96
:10169000D1D023789A0004EB83017A6162687A6280
:1016A000FA6A002A7BD14D4601EB0A0690461BF0F0
:1016B000050F0CBF02230123FB62FB6906EB430A03
:1016C0000BF00203BB625645BCD016F8021B16F89D
:1016D000013C54F823909B4B994502D39A4B994572
:1016E0003AD3BB69002B44D0786A0AF09AFF0028ED
:1016F0003FD09648036813F0060F13D0E9468AB02E
:101700006A46934B53617B6AC2E906314FF400731A
:101710001384904B42F8103F00234FF4125100F015
:1017200047FDCD46023DCEE716F8013BF96254F87D
:101730002300FFF7C7F8D7F884300130F96A4BB1BE
:10174000D7F8883098453EBFD7F8843023F8180082
:1017500008F10108054494E7BB6923B1786A0AF0EF
:1017600060FF0028C5D11BF0010F05D1FB6AED1AFF
:10177000A9E7BB6A002BA6D04846FFF7A3F8D7F825
:10178000843053B1D7F8883098453FBF431CD7F811
:10179000842022F8183008F10108054493E7BAF1D3
:1017A000000F72D01BF0040672D0D046002607F15D
:1017B000480052463B61B9620FF0A4FDB96A3B692B
:1017C00001EB0A02F969BA62FA695200FA60BA6A70
:1017D00002EB41023A610BF00202BA603A69B96A5F
:1017E0008A4257D11BF0020F62780CBF4FEA5801B2
:1017F00000217A621BF0010F3244D2B240F09F8088
:101800001BF0040F14BF40460020BB616270A07043
:101810002046E1703A6A7969FB6A9847051EFFF62F
:1018200011AFBB6941463A6A07F1480023707B6AF1
:1018300084F802A06370FB69E370FB6A9847B0F11B
:101840000008C0F2B5807B69A9EB0A013A6AC91A9F
:10185000FB68C91AD7E90A0398470028C0F2AA8092
:10186000A8444FF0000B07F1380A08EB0005B34518
:1018700072D300213A6AFB6A08469847E2E6564668
:101880004FF0000807F1380093E75646D04697E737
:10189000B04695E7BA6A12F8021B12F8015CBA6208
:1018A00054F82500274A904202D3274A90421ED37B
:1018B000BA6932B1786A7B600AF0B3FE7B680028AF
:1018C0008CD1BA6802BB08F1280207F1300C08F18C
:1018D000010008F10208944407F158025FFA88F801
:1018E00052FA80F00CF8101C00F8105C76E7BA6928
:1018F0003AB1786A7B600AF094FE7B6800287FF436
:101900006DAF1BF0010F09D006F1280207F130007E
:10191000711C161806F8205CCEB25FE71BF0040FAE
:101920003FF45CAF08F1280207F1300008F1010133
:1019300002EB000808F8105C5FFA81F84EE700201F
:1019400063E700BF18150108604C0108AC020024D1
:10195000642B0108040000011BF80A3054F823909E
:1019600087F83730D7F88430FBB133F81B803A6AF8
:10197000012107F13700FB6A984700281ADB05446C
:10198000B8F1000F06D14846FEF79CFF00F10108B0
:101990001FFA88F83A6A41464846FB6A9847002889
:1019A00008DB05440BF1010B61E7D7F88480DEE723
:1019B000454647E6054645E6014B1860704700BFBF
:1019C0002400002480B505460E461746984609F0C7
:1019D0004FFCDFF8209003460FF094FD044642468A
:1019E00049F8003039463046A84754F8090003F05A
:1019F00041FB00BF08000000044608B5EFF3118367
:101A0000102383F31288BFF36F8F0DF04DFD204636
:101A100003F01EFB02480AF02BFE0CF0BAFCFCE7B8
:101A2000182C0108054B00205A6822F002025A6067
:101A30005A6822F001025A60704700BF0010005C33
:101A40000F4B104A1A60104BDA6822F0070242F07E
:101A50000202DA609A6942F440429A619A699204F9
:101A6000FCD50A4B1A6841F20303B3EB124F06D1BF
:101A7000074AD2F8083143F00103C2F80831704731
:101A8000100200240090D003004802580010005CAF
:101A9000008000512DE9F047044607464FF0010948
:101AA000DFF8508014B93846BDE8F08794FAA4F501
:101AB000B5FA85F509FA05F32E0108EB05156FEA6D
:101AC000030A24EA03042B7B002BEBD058F80630E2
:101AD0001B694BB946440422284607EA0A07736883
:101AE000196800F025FBDDE7284698470028D9D182
:101AF000F0E700BFF81C010830B5002289B00F499B
:101B00000F480FF084FA0022002300240D4D0E49E7
:101B100028460094CDE906230E234FF44072CDE908
:101B20000334CDE90144094B09F07EF80849284601
:101B300008F0A6FF204609B030BD00BF551B0008C5
:101B40001808002458030024C0170024751E00083C
:101B5000702C0108014808F009BE00BF3C030024B6
:101B60002DE9F04780461E480F460BF0BAF80646AE
:101B700078B300252846BDE8F087237B6BB1236846
:101B8000DB680BB12046984723681B69CBB96368B3
:101B900004222046196800F0CBFA013610344C4577
:101BA000EBD3B8F1000FE5D0002DE2D02846FFF7C7
:101BB00071FF0546002FF7D00021642009F03CFB9F
:101BC000F2E7204698470028E1D00AFA06F31D43C1
:101BD000E3E7044C0546DFF810904FF0010ADEE71A
:101BE00068110024F81C0108081D010808B5034607
:101BF00008462BB1044A136000F07CFD002008BDAC
:101C00006FF01500FBE700BF2800002410B5044C5E
:101C1000237813B9034808F0A9FD0123237010BDF0
:101C20006A1700243C03002410B504460B480BF04F
:101C300058F85CB10A4BBFF35B8F53E8001F0139C2
:101C400043E80012002AF8D1BFF35B8F05480FF07C
:101C5000EAF90548BDE8104008F088BD601100248D
:101C600064110024180800243C0300240020064BC3
:101C7000BFF35B8F014653E8000F43E80012002AD0
:101C8000F9D1BFF35B8F70476011002470B5FFF787
:101C9000EDFF084C0546084EB44200D370BD6368A2
:101CA0005B792BB123685B6813B1294620469847BE
:101CB0001034F1E7F81C0108081D010810B5044CA8
:101CC000044920460AF0DBFD034B1C6010BD00BF39
:101CD00068020024341F01085811002408B5094A7D
:101CE00000234FF47A7108481370084A1360084AB9
:101CF0001360FFF77BFFFFF7E1FFBDE8084000F04E
:101D000067B900BF6B170024FDCC000860110024E8
:101D10006411002401460022002301480AF0D0BDCE
:101D20006802002401480AF066BE00BF6802002471
:101D3000024B014618680AF0B2BE00BF58110024D9
:101D400001480AF0E7BE00BF68020024324B2DE9CB
:101D5000F041187800285DD0FFF7E4FF044698B101
:101D60002E4BBFF35B8F53E8001F013943E800128D
:101D7000002AF8D12A4DBFF35B8FDFF8A8804545D4
:101D800026D32046FFF7D4FF274B284C1B68002B97
:101D900012DD0FF03AF90A220023FEF767FDD4E9BD
:101DA0000032C01A40F2E93361EB0201984271F14E
:101DB000000101D3FFF76AFFD4E9003213F57A730B
:101DC00042F10002C4E90032BDE8F041FFF7B8BFBC
:101DD0006B685B793BB121784B0706D52B682146B0
:101DE00028461B6898471035C9E726882046C1F366
:101DF000C20700F0BDFAC6F382160246002EEDD0EF
:101E00000028EBDB01233946284600F0ABF9B0424D
:101E1000E9D3E3E7BDE8F0816A17002464110024E8
:101E2000F81C0108081D0108601100241008002496
:101E300070B50D4D297861B90C4C01200C4EFFF79F
:101E40008FFEB44206D3FFF781FF0028FBD10123A8
:101E50002B7070BD63685B791BB1236820469B685B
:101E600098471034EDE700BF6B170024F81C0108F9
:101E7000081D010800212DE9F0470846FFF770FE14
:101E8000044658B34FF4FA784FF000091C4B0FF09A
:101E900039FB1C4A1B58136033B11B4B1B68092BC1
:101EA00002DD1A4808F062FC0025194FDFF85CA03B
:101EB00044B12046FFF7EEFD044618B94FF0FF3855
:101EC0004FF0FF39FFF742FF064628B9B5B9424641
:101ED0004B46504608F070FC3546E9E74FF0FF38B6
:101EE0004FF0FF39D2E72B689B691BB100222846CF
:101EF000114698471035BD42F5D3E8E7054DFAE79E
:101F0000080000005C110024641100243C0300243C
:101F1000081D0108F81C010813B518480AF0E1FE75
:101F2000174B1B7873B1EFF31184102383F31288DE
:101F3000BFF36F8FFFF70AFF84F31188BFF36F8F32
:101F400002B010BD0F4B1B68002BF9D050B9002216
:101F500000230D48CDE9002342F21072002309F05E
:101F60003FFCEDE70928EBD107480FF05CF8074884
:101F700002B0BDE8104008F0F9BB00BF64110024B6
:101F80006B1700245C110024180800243C03002473
:101F9000064B10B504461B6898472146A0600448CC
:101FA0000AF00AFDBDE81040FFF7B6BF2800002484
:101FB00068020024044A054B9B1AB1EBD30F34BFCF
:101FC00052F8310000207047701C0108F81C01080D
:101FD0000B4800210B4B1B1A043030B5DB080A4CB0
:101FE000994200D130BD10F831200131256802F04E
:101FF000070225F007052A4344F8042BF0E700BF49
:10200000701C0108F81C0108AC020024F8B50B4F45
:1020100006460B4D0024ED1BED08AC4203D14FF0FA
:10202000FF342046F8BD57F8340020B13146FEF7A2
:1020300037FC0028F5D00134EFE700BF701C010821
:10204000F81C010800282DE9F047884615461F4670
:102050001DDADFF898904FF0000A254E5446A6EBA3
:1020600009063609B24509F1100902D12046BDE83A
:10207000F08759F80C0C3B462A46414600790AF194
:10208000010AFFF7DFFF844238BF0446EAE7194B35
:10209000194AD21AB5EBD20F25D203EBC5031C792E
:1020A000BC4228BF3C46C0B20722144E002100EBC0
:1020B000400056F82530824023EA020304F007026C
:1020C00082401343032223FA02F0033200F0070098
:1020D000814238BF01461E2AF5D123F007030B4386
:1020E00046F82530C2E70024DDE700BFF81C0108F0
:1020F000081D0108701C0108F81C0108AC0200242E
:10210000F8B5094D0646094B0F460024ED1AED08B7
:10211000AC4200D3F8BD22B201343B460021304628
:10212000A4B20AF006FEF3E7F81C0108701C0108CF
:1021300038B50B4B0D4611464268C31A04461B11B5
:102140000133137143689971FFF7DAFF6368012265
:102150001D6063685A71BDE83840FFF757BD00BF86
:10216000F81C010870B14168097973B1002A17DBC6
:10217000CBB20C4903EB430351F82200D84000F0E6
:10218000070070474FF0FF31EFE707490748401A53
:10219000B2EBD00F3ABF01EBC20108791846704785
:1021A00004207047AC020024701C0108F81C0108D0
:1021B0002DE9F04F8FB0C1F34A280D46914604AF88
:1021C0000C0DB8607B60B8F1000F67D0002607F1F6
:1021D00014034FF0040B4FF00A0AC7F80C80324684
:1021E0007E624846C7E90766019307F11C03CDF8F4
:1021F00008B0CDF800A0F968FFF7FAF9B0F5006F64
:10220000034620D32A48036813F0060F17D06C4604
:102210008AB0D9F8041004AB264D1A46C3E905511B
:1022200040F2FF71D9614FF400711984224B42F8DA
:10223000103F4FF412513346FFF7BAFFA5462C3733
:10224000BD46BDE8F08FC0F30A0804F117003B60FB
:10225000184468F3532520F007008008FFF75AFD63
:10226000044690B13B6800F11001144A4846F961F8
:10227000C7E9083607F11403CDF808B0CDE900A38B
:1022800007F11C03F968FFF7B3F968F353257B687E
:10229000B96820462A460AF076FDD0E704F1170017
:1022A00020F007008008FFF735FD0446EDE700BF8A
:1022B000C8020024852C0108040000015BCD000841
:1022C0002DE9F04F87B00446934698460391DDE927
:1022D0001279DDE9105ADFB13B4652461021002049
:1022E000CDF80090CDF81490FEF7B0FFB0F5006F78
:1022F00006460ED31C48036813F0060F30D040F298
:10230000FF731A4A022107B0BDE8F04F0AF094BDEE
:102310003E4604F0070405F117000BF0070BE4003C
:10232000304444EA8B1420F0070044EA4624800835
:1023300044EA0554FFF7EEFC054640B13FB13B4689
:10234000524631461030CDF80090FEF77FFF4346ED
:1023500022460399284607B0BDE8F04F0AF013BDA6
:1023600007B0BDE8F08F00BFC8020024C42C0108EC
:10237000406820B1034BC01A40F38F0070474FF004
:10238000FF307047AC0200240EB403B503AB014626
:10239000054853F8042B019303F03EF902B05DF8B1
:1023A00004EB03B0704700BF9BCE0008CA0605D4FB
:1023B0008B064CBF02490349FFF7E6BF704700BFD9
:1023C00030310108FC2C01082DE9F04F89B09B4603
:1023D00004460D46149B90469DF84CA00693159B11
:1023E000179E0593169B0493BAF1000F00F09D8091
:1023F00006F4807306F0020907930AF098FC02467F
:1024000000283ED091492046FFF7BEFF0746B9F1AC
:10241000000F08D016F0440F35D12A468C492046CB
:10242000FFF7B2FF074406F0010353B1894B204682
:10243000894953F82A20894B002A08BF1A46FFF71A
:10244000A3FF06F48073002B49D006F00803002B8D
:1024500063D1B8F1000F66D0424681492046FFF7AC
:1024600093FF0546069B3D44002B6DD1049B002B3A
:1024700073D1F30700F1E48031462046FFF796FF61
:10248000D8E00746C3E7774B18680028CAD0764BD8
:102490004FF47A794FF461614FF03C0C1B68B5FB47
:1024A000F3F5B5FBF0F300FB135509FB05F5B3FBA2
:1024B000F1F2B5FBF0FE01FB123100FB1E55B1FB42
:1024C000FCF309FB05F50CFB1311B5FBF0F50091CE
:1024D00020466649CDE901E5FFF756FFA2E706F081
:1024E0000803EBB1624B2046624953F82A20FFF7FC
:1024F0004BFF0546B8F1000F05D04246584920462B
:10250000FFF742FF0544BBF1000FABD05A465A49D2
:102510002046FFF739FF0544A4E74FF0000BE1E741
:1025200006F00805E6E745469CE7BBF1010F069B70
:1025300006D1002B64D1049B002B7BD000250CE03E
:10254000002BF8D04D485CE04D48069B22464D4993
:102550000AF036F8049B002B68D0DFF82C81DFF8F6
:102560002C91049F4FF0000B31462046102F28BFBE
:102570001027FFF71BFF5D4545DC059B4FF0010B66
:10258000494620461A78FFF7FFFE1BF0070F03D1DC
:1025900041462046FFF7F8FE5F453BD9059B49467B
:1025A000204613F80B20FFF7EFFE0BF1010BBBF1F8
:1025B000100FEAD14FF0000B35492046FFF7E4FE3B
:1025C0005A46059B20469A5CA2F120015F293149B9
:1025D00028BF2E22FFF7D8FE0BF1010BBBF1100F25
:1025E0001DD01BF0070F03D141462046FFF7CCFE5C
:1025F0005F455A46E5D841462046FFF7C5FEEBE762
:102600001F485546A1E7414620460BF1010BFFF755
:10261000BBFEB0E720492046FFF7B6FEC5E7059BA5
:102620003B440593049BDB1B04939AD1BAF1000F42
:102630007FF41FAF204609B0BDE8F04F0AF020BC80
:10264000064A20460449FFF79FFE15E7042D0108BE
:10265000082D0108481F010819320108FF2C010844
:102660002D2D0108701100246C110024112D01087A
:102670005C1F0108312D0108372D0108D1CE00085B
:102680009BCE0008195600084D4A01083C2D010850
:10269000422D01082C3801084B4A010842F20F7301
:1026A000114A8B4273B5044628BF0B4605680521C5
:1026B000684609F06FF9636806460B2228465B6896
:1026C0000A490AF0CFFB63683246694628465B68D0
:1026D0000AF0C8FB63681B2205495B6828460AF0BC
:1026E000C1FB02B070BD00BF96290108602D010832
:1026F000442D010800210123064A904206D8064ACB
:1027000001B901231360054B18607047400801218F
:102710005B00F2E740420F006C11002470110024AE
:10272000014B036001207047701F01082DE9F84339
:102730000646FEF7C7F80546EFF31188102383F32A
:102740001288BFF36F8F114B1C68D3F804909C4222
:1027500008BF002434B988F31188BFF36F8F204677
:10276000BDE8F883A7683846FEF7ACF8A84206D162
:102770002A46394630460EF021FE0028EBD04C4563
:1027800001D02468E6E70024E5E700BF2C00002420
:102790002DE9F0410E461546FFF7C8FF044640B349
:1027A000C36833B31F6927B3062E07D0072E23D083
:1027B0002A4631463B46BDE8F0411847838A3BB97B
:1027C0002A463146B84750B9A38A0133A38206E0AE
:1027D0004FF6FF72934204D00133A3820020BDE87C
:1027E000F081164803685B0703D0154A01210AF0FF
:1027F0001AFB6FF01500F2E745B12A7832B10022DA
:10280000314682822A461B699847E7E7A38A012B53
:1028100008D12A4607212046B8470028DFD1A38ADD
:10282000013BD3E70BB1013BD7E70448036813F042
:10283000060FDED0034A0221D9E700BFB002002410
:102840009C2D0108BE2D010810B5044608B1806812
:1028500050B9134803685A0703D0124A01210AF0FD
:10286000E2FA6FF0150010BDFFF760FF28B10C48C9
:1028700003685B07F5D00C4AF0E7A082EFF3118103
:10288000102383F31288BFF36F8F084B5A68C4E993
:10289000003214605C6081F31188BFF36F8FE2E750
:1028A000B0020024DC2D0108F52D01082C000024C5
:1028B00010B5044605F0F4F80349024620460AF034
:1028C00029FD002010BD00BF352E010837B5134685
:1028D000002205460A21019201AA586801F0D2FBA4
:1028E000019C4CB920EAE0700A2180FB010108F04C
:1028F000A3FC204603B030BD2246034928460AF017
:1029000025FD019CF5E700BF612E0108034A04493B
:1029100008B50AF0FFFC002008BD00BF512F0108D8
:10292000582F01082DE9F34117460023044601AA58
:102930000A21B868019301F0A5FB019DC6B24DB113
:102940002A46144920460AF001FD019D284602B09E
:10295000BDE8F081042E09D932460F4920460125F1
:102960000AF0F4FC20460AF02CFDEFE77868FFF748
:102970004DFBB0F1000804DA7A68204607490AF0F6
:10298000E5FC002133460FFA88F208460AF0D1F937
:10299000DCE700BF832F0108AA2F0108C12F01081F
:1029A00010B5044605F05EF80749024620460AF0D5
:1029B000B1FC204605490AF0ADFC2146044808F068
:1029C00013FD002010BD00BF533001087230010814
:1029D000D529000870B58EB004460D46D0F89C602D
:1029E0000EF0C6F9224A03460EF08CFD1058214A1B
:1029F0002149002B18BF1A46234600921F4A8442E1
:102A000018BF0A4628461E490AF084FC28461D497C
:102A1000D4E90A23CDE9002394F90E30227B0AF091
:102A200079FC06A92022204608F03AF8636E024697
:102A3000154928460AF06EFC05A920460EF0A8F9B3
:102A4000024628B1114928460AF064FC0EB070BD58
:102A5000059B64222846F11A4A4300910C49B2FBB7
:102A6000F6F2CDE9016232460AF054FCEEE700BF0F
:102A7000080000007C3001084D4A01080D420108A1
:102A80007F3001088B300108B7300108CE300108D3
:102A9000FB300108F0B591B0002504461C2208AFB8
:102AA000294609A8144E0EF055FC1A22202138465A
:102AB0000EF050FC2146114808F096FC07AA4FF48E
:102AC000006130460EF058F9079A64232046C2F59B
:102AD000006100974B43DB0A05934FF40063CDE997
:102AE0000313CDE9013206492B46A6F140020AF054
:102AF00011FC284611B0F0BD80230024052B0008EE
:102B00004C31010870B5044688B00D46D0F89C6081
:102B100007A90EF03DF9024628B10F4928460AF0F0
:102B2000F9FB08B070BD20460EF022F9079B642225
:102B30000096F11A4A43B2FBF6F2CDE90131074B98
:102B40000749002818BF03462846CDE903622246FC
:102B50000AF0E0FBE5E700BFCE3001087C30010859
:102B6000953101082DE9F04387B005461A4F6846B4
:102B7000DFF8688007F028FB1423009E0821184A1C
:102B800003FB006628460AF0B8FBDFF85890009C6B
:102B9000B44203D3002007B0BDE8F08323680BB133
:102BA0001A7832B923463A46142101A808F0F2FEF9
:102BB00001AB4246082128460AF09FFB2046143408
:102BC0000DF0F8FF084B094A0821002808BF4B46C2
:102BD00028460AF092FBDBE712320108173201089F
:102BE00008320108FF310108F93101088B3801086A
:102BF0002DE9F041144688460746102200216068FE
:102C000008F06AFFB8F1020F064607D82023254ACC
:102C1000082138460AF071FB336816E00A220021C9
:102C2000A06808F059FF1F4AC5B2082138462B4654
:102C30000AF063FBB8F1030F1AD1102D0CD0202D30
:102C4000EAD0082D0BD13378DBB2174A0821384679
:102C50000AF053FB002009E033889BB2F5E73846C1
:102C6000124A08210AF049FB6FF01500BDE8F08117
:102C700010220021E06808F02FFF0D4A03460446A9
:102C8000082138460AF039FB102D06D0202D07D038
:102C9000082DE4D1E4B23470DCE7A4B23480D9E783
:102CA0003460D7E74B320108763201086032010800
:102CB000873201082DE9F04F4FF0FF35594B91460F
:102CC000202601222C46DFF860A185B00746884601
:102CD0001A6002F007FD49465246404602F026FDC2
:102CE000411C06D16A1C50D1504938460AF02EFBCF
:102CF0001CE073281FD0772832D0612816D1DFF866
:102D000030B110220021DBF8000008F0E5FE054696
:102D10000028E0D1474B0EF0F5FB1B58162BDAD1FB
:102D2000DBF80020444938460AF010FB6FF015002C
:102D300005B0BDE8F08F0022DFF8F4B01146DBF8F3
:102D4000000008F0C9FE04460028C4D1394B0EF03B
:102D5000D9FB1B58162BBED1DBF800203749E2E720
:102D60000022DFF8CCB01146DBF8000008F0B4FE1A
:102D700006460028AFD12F4B0EF0C4FB1B58162B74
:102D8000A9D1DBF800202E49CDE7631C01D12D49E4
:102D9000ABE75FFA86F8C6F3C406002C3FD06B465B
:102DA0002946A6EB050C1A460CE0B8F1100F1DD011
:102DB000B8F1200F20D0B8F1080F2AD10878187088
:102DC00031443344A64203D80CEB01001028ECD95F
:102DD000102CA1462946384628BF4FF0100910355F
:102DE0004B46A4EB090401F025F8D6E7088880B229
:102DF0001870000A5870E3E708684FEA102E187040
:102E000083F801E04FEA104E000E83F802E0D8701C
:102E1000D6E70D4A082138460AF06FFA86E72046C1
:102E200086E700BFB4000024D5320108DC32010877
:102E30002C1500240C0000009B320108AE32010862
:102E4000C1320108F93201086032010870B50F4E35
:102E500004460D46337871B123B10D49BDE8704089
:102E60000AF074BA012333700A4920460AF052FA74
:102E70000123337004E083F001033370002BF3D19E
:102E800029462046BDE870400AF0B8BA6C17002405
:102E9000133301084E33010870B504463B480378EC
:102EA000182B02D10B78112B31D0013A0B468D181B
:102EB000AB4225D18B5C0A780370A2F13003344C0D
:102EC000092B04D922F02003413B052B04D82368A9
:102ED0003049CA54013323602368022B33D11022B6
:102EE00000212C4808F0F8FD2B4A136803F8010B69
:102EF00013602A4A1368013313600023236022E021
:102F000013F8016B182ED3D11E78112ED0D1234D7A
:102F1000204623492A680AF0FDF920460021FFF7E0
:102F200095FF204B187870B91F4A2B681168042B45
:102F30000ADC08B111602B6013F003010BD1126899
:102F400013681BBA136070BD0868043B00BA41F8EF
:102F5000040B0120EBE75B4203F0030358BF594227
:102F6000022904D1126813885BBA9BB2EAE70329ED
:102F7000E9D1106802681104C2F3074302F47F42EA
:102F800001F47F010B4313430360DCE76D1700245A
:102F9000741100246F17002480110024781100247C
:102FA000783301086E1700247C1100242DE9F84FB6
:102FB00000230C462A490646DFF8A88015460B6018
:102FC000DFF8A4902949DFF8A8B088F800300B603A
:102FD000012C2F4655F804AF1ED90222494650460F
:102FE0000EF0ECF980B99AF80220003A18BF0122DD
:102FF00092442049022250460EF0E0F930B90123F4
:1030000088F80030013CE3E70022F1E749465046EA
:10301000FDF746FCA8B9043700227868114608F08D
:10302000E5FC0022144B11461860786808F0DEFCBD
:10303000124B134918603046FFF708FF0020BDE827
:10304000F88F9AF800202D2AE6D19AF80120002A5C
:10305000E2D05246594630460AF05CF9D2E700BF4A
:10306000741100246E170024923301087811002493
:103070009833010895330108801100247C11002445
:10308000992E000807B50A480DF094FD60B104239D
:10309000084A0749009301231268074800F030FFEF
:1030A000002003B05DF804FB6FF01200F9E700BFE9
:1030B0000817010868200108081D010810B54468B8
:1030C000A3604023C4E9001242680821D36402F1DE
:1030D0005803D16202F15001136300231468536353
:1030E0001364116153611362C2F8D030C2E90E3328
:1030F000C2E91133C2E90633C2E90933A36823B137
:103100009B6C13B1044920469847A3689B6A0BB196
:1031100020469847002010BD1D3100082DE9F743D7
:1031200004460D4683685B6C03B19847A3685B6BEC
:103130000BBB4FF0000905F13008EA6C01A94046CD
:1031400009F001FD0746002836D0A36801999B6964
:103150003BB3024620469847064628B331464046D0
:1031600009F011FDB7424FF00109E6D0D5E9013170
:103170000020984703E0204698470028D9D1A3684B
:103180005B6A63BB05F11007EA6A01A9384609F0DA
:103190002EFD064650BB204609F032FFC5F8D06030
:1031A0002FE06FF05706D9E70146404609F0EBFCE7
:1031B000B9F1000FE3D0D9E71648036813F0060F02
:1031C00003D0154A022109F02EFEA3689B69002B4B
:1031D000EED001220DF1030120469847E8E7204692
:1031E00098470028CED103B0BDE8F083A3680199C9
:1031F0005B695BB10246204698470146384609F0B4
:1032000015FD0120D5E901319847ECE76FF0570132
:10321000F4E700BFE0020024FF34010810B5816824
:103220000446183101F062F9A1682046024A1831BB
:10323000BDE8104001F000B94135010838B5836898
:103240000446D3F87832DB071DD4C0690AF0FBFDD1
:10325000606803685B689847054620B9E0680AF033
:10326000C6FFA3681D75A3685B6C13B12946204691
:103270009847A36800220EF045F9C3F82023034BBA
:10328000185801F0F7FE6FF00F05ECE7080000009A
:10329000014909F053BF00BF30310108F7B50446BA
:1032A00080680D46D0F878325A0705D5002109F01C
:1032B0006DFFE0680AF06DFFE368DB6873B9002D0D
:1032C0003BD0A66806F15607384609F044FF0028AF
:1032D00035D0394606F5AB70FDF7ECFAA2680DF172
:1032E00006032946E06856320AF056FF58B9A0682E
:1032F00000F5AB715630FDF7DDFAA068563009F0E5
:103300002AFFADF8060020460AF069FBA368D3F84F
:1033100074329B0603D50B49606909F00FFF204604
:1033200000F018FFA268BDF806302046A2F852301F
:10333000A268A2F850300AF0B8FA03B0F0BD86F8DF
:103340005601CBE7741E01082DE9F04FA7B00446E3
:103350005422002111A80DF0FDFF00232046CDE9E5
:103360000533A368563302930AF040FB20460AF067
:1033700085FA10B96069FFF78BFFA068142200215D
:10338000002618304FF0FF370DF0E4FF20460AF01A
:103390001CFAA168E068B246B1F850200DF144086B
:1033A0005631B3463546B1460AF02DFF20460AF0A5
:1033B000ACFF0396DDE90532012A6DD0132B6ED8E0
:1033C0005FBBBBF1000F0AD020460AF0BFFFA26826
:1033D000142311A956320DEB03000AF075F8B9F168
:1033E000000F0CD099F81130FE2B08D1059B26AAAE
:1033F00002EB830252F8542C0AB101330593A06802
:10340000059D436A002B40F0B680CEB1C3699E4251
:103410002DD000F118050D9624E00223029A4146B2
:1034200006A80AF051F8D8F804200699034602923B
:1034300031B101290AD148B16D4A20460AF087FB13
:103440006FF00705284627B0BDE8F08F059B002BDD
:1034500034D0D8F8000001F069F898B166B1A568D9
:103460000D9618350CAE0FCE0FC533682B60204675
:103470000125FFF7D3FEE5E75E4A012120460AF069
:1034800066FBDDE7059BCBB1D8F800202946204636
:1034900001F0F0F9022809D1059B132B91D9069B65
:1034A000022B8ED1544B0121544AC6E7032805D084
:1034B000059B4FF0010B013305937BE7039B33B969
:1034C00007AAD8F8001048460AF0F5F8054608F1B2
:1034D0000408013F9DB3EB68BBF1000F08D0F3B1C6
:1034E00020460AF083FA20460AF0DFF9444AC4E78E
:1034F000ABB1A368AE46DDF814A003F1180CBEE82A
:103500000F00ACE80F00DEF80030CCF80030AB68FC
:103510002BB96B7CFE2B04BF2F7C07F1FF37D5F84E
:1035200004C0BCF1000F08D0AE460CAEBEE80F00E0
:103530000FC6DEF8003033606646A94603E0059BFF
:1035400053B101230393069B17B9022B7FF432AFCB
:10355000059B013305932DE7A368DB6A13B1DB6894
:10356000002BEED1274B0121274A20460093119BC7
:103570000AF0EDFAE5E790F82830A5EB0A05BBB1B3
:1035800090F829104FF6FF72FF2918BF0A469D4296
:1035900002D313449D420BD9836901211B4A204663
:1035A0000AF0D5FA20466FF01505FFF737FE49E718
:1035B000012109F0E0FDA06800F5437009F0FFFD6E
:1035C000A36811AA29465B6A204602EB8A02984743
:1035D0000546A0684FF0FF324FF0FF3300F543700F
:1035E00009F094FD0021A06809F0C5FD2AE700BF9D
:1035F0004F35010863350108C43501086E290108FB
:1036000081350108B0350108B8380108E8350108EE
:1036100010B50222836804461A7583689B6CBBB997
:1036200009F04BFD8368D3F87832DB040BD5032116
:10363000084B094A0AF08BFAA0686FF4805100F534
:103640001E7009F054FD2046BDE8104000F0D6BEC3
:1036500010BD00BF03360108193201082DE9F04FF3
:1036600004468068B1B0012100F51E7009F030FDFC
:10367000A3681B7D022B20D100230993A3686068F7
:103680009E6C03681D6909AB0EB310221BA9A847E5
:10369000099B93B10121A06809F06DFD099A1BA94E
:1036A0002046B0470021A06809F065FDA3689B6C27
:1036B000002BE3D12046FFF7ABFFA0686FF00101BC
:1036C00000F51E7031B0BDE8F04F09F010BD0122C9
:1036D0000DF12301A847099B002BEED09DF9232073
:1036E0009DF82310002AA368C8DB5A7D032A00F244
:1036F0009882DFE812F0040085029C0296020D29F0
:103700007CD00A2958D0B3F8782209296FF3CA026D
:10371000A3F87822A06800F086803DD80029ADD0BB
:10372000082900F0FC810346D3F874229207A5D53E
:1037300001391629A2D801A252F821F0D13C000883
:10374000593B0008613B0008513B0008C53C00089C
:103750007F3B00087D3600087D3600087D36000876
:103760007D360008873B00088F3B00087D36000847
:10377000B93B00087D360008C33B00087D360008D1
:103780007D3600087D3600087D360008C73B0008FE
:103790007D360008F13B00081B2941D07F2900F04D
:1037A000CA81A1F1200203465E2ABDD8012109F099
:1037B000EDFC9DF82310B9E0D3F87822C2F3C702DC
:1037C0002AB1D3F87822C2F3C7020A2AACD1B3F8DF
:1037D000782261F3CA02A3F87822A568B5F85010E0
:1037E000C1B9284609F0D2FCE0680AF0D2FC606951
:1037F000FFF74EFD2046FFF70BFF3FE7D3F8782297
:10380000C2F3C702002AE2D0D3F87822C2F3C7027B
:103810000D2ADBE72046FFF797FDC5F82403E9E70B
:10382000012343752AE7D0F874329B077FF526AF52
:10383000012109F0ABFCA068B0F85030FF2B3FF439
:103840001DAFB0F8522000F1560100F5AB70002515
:103850000DF058FDA3681BA90BA8B3F85220134420
:1038600083F856511423A26802F5AB7209F02CFEBE
:103870000B9914293FF602AF30AB03EB810343F8F9
:10388000545CA368B3F85220002A53D0134493F831
:103890005530202B02D0093B042B4BD800294CD1AA
:1038A00000250A9530AA0A9B002602EB8303B34643
:1038B000B04653F854AC3746504609F04CFC8146AC
:1038C00016AA3946284600F0A3FB0346002840D13B
:1038D000012EA76865D130AA0A9B02EB830353F837
:1038E000540C09F038FC07F11802064641462846F8
:1038F00000F08EFB0568284609F02DFC864205D0B5
:10390000821BA919204692B20AF068F9A068B0F8A3
:103910005230034493F85630202B31D0093B042B0E
:103920002ED9D0F87432DF072FD42021204600F0A2
:103930002DFDA3E60129B3D9013900200CAB1BAA48
:1039400000930AAB019009F0E2FE05460028A9D1D8
:1039500094E61B684A465146184603930DF02EFD27
:1039600060B9039B1846FCF7ADFF584538BF584671
:10397000002E08BFB84601361FFA80FB01379FE7CB
:103980000121204609F0C5FF78E6002109F008FC76
:103990002021204600F0FAFC0121A06809F000FC7B
:1039A0006CE604907FF66AAE30AB0A9AC14603EB30
:1039B000820252F8543C1846039309F0CCFB049B56
:1039C0000590A7F840300496A2684946284609F1B8
:1039D0000109183200F01CFB039BD0F800A04BB18A
:1039E000BAF1000F06D0059A194650460DF0E6FCD4
:1039F0000028E9D1A168BAF1000F4ED1A1F840A08A
:103A0000049B013B0493DFD1606908F1010AFFF7D1
:103A10003FFC204600F0F2FC30AA0A9B02EB830335
:103A200053F8540C09F097FB414611AA81462846E9
:103A300000F0EEFA0746A068FF22396800F5AB7087
:103A40000DF0CEFC3B684FF6FF770393B84616AAFD
:103A5000514628460AF1010B00F0DAFA002852D04C
:103A6000A1680022036801F2551111F801EF985C7A
:103A7000704503D110B101324245F6D1B9F1000FC2
:103A800001D04A4507DBBA4206F1FF36A8BF3A46E5
:103A9000012E97B237D0DA46D9E79948069109F056
:103AA0005AFB069900EB0B074A8FBFB20791121A17
:103AB000504692FBF7F292B2069209F04CFB07993E
:103AC0003F1A069AB1F84000BFB200F1010CA1F80C
:103AD00040C0B0FBF2F102FB110080B260B9884B2C
:103AE0000621884A2046CDF800A00AF030F8394671
:103AF000204600F019FB83E75346834A06212046FF
:103B00000AF025F8F3E7002F3FF4B8ADA7EB090260
:103B10000399204692B249440AF060F8AEE5D0F825
:103B200074329E077FF5AAAD012109F02FFB2046D4
:103B30000AF075F8A2E5D0F874329D077FF59EADC6
:103B4000012109F023FBA368D3F874321907EED4DE
:103B500020460AF045F891E5204609F050FF8DE532
:103B6000204609F043FF204609F088FE10B960693D
:103B7000FFF78EFB0121A06809F008FB3AE620461A
:103B800009F046FF7AE5204609F04DFF76E5D3F8C7
:103B900074329B0603D55D49606909F0CFFAA368CA
:103BA000D3F874329F0603D55949606909F0C6FA03
:103BB000204600F023FC61E500212046FFF76EFB64
:103BC0005CE50121F9E7204609F009FF204609F0EC
:103BD00074FA0121A06809F0D9FAA368D3F8743205
:103BE0009E067FF54BAD4B49606909F0A7FA45E5A4
:103BF000204600F029FB0121A06809F0C7FA3DE545
:103C00005B2902D102225A7538E5D3F874329D0738
:103C100006D5622907D14FF0FF31204609F0A1FEF9
:103C2000A3680022EFE76629FAD10121F5E7002217
:103C30005A75A268D2F8743298077FF51FADA1F1CA
:103C400031031B2B3FF61AAD01A151F823F000BF41
:103C5000CD3C0008D93C0008ED3C0008C13C000800
:103C60007D3600087D3600087D3600087D36000868
:103C70007D3600087D3600087D3600087D36000858
:103C80007D3600087D3600087D3600087D36000848
:103C9000C33B0008B93B00087F3B0008593B0008C4
:103CA0007D360008C53C00087D360008D13C000880
:103CB0007D3600087D3600087D360008DD3C0008B2
:103CC00003235375204609F091FED7E4032353756F
:103CD000204609F084FED1E403235375A068D0F890
:103CE000741201F0010181F0010157E603235375BD
:103CF000A368D3F874329B077FF5C0AC28E700BFF8
:103D00004C4A01084736010819320108791E01089A
:103D10007E1E0108741E01082DE9F04104468068EA
:103D2000154600F51E70002937D04FF4804109F088
:103D3000CFF9A3680021DD64606803689B68984739
:103D400000284BD1204609F060FA002846D1244EC5
:103D5000244FDFF89480A06800F52F704FF0FF32F9
:103D60004FF0FF33032107F075FD0546A0684FF0C3
:103D7000FF324FF0FF3300F543709DB109F0C6F9F3
:103D800020462B46194A012109F0E1FEA068BDE852
:103D9000F04100F5437009F012BA6FF4804109F068
:103DA000A6F9C6E709F0B2F932460221204609F029
:103DB000AFF93A462946204609F0AAF9204642467C
:103DC000012109F0A5F9606803685B6903B19847B0
:103DD000A06800F5437009F0F2F9BCE7BDE8F08196
:103DE0003D3200085D360008C3D100084D36010899
:103DF00010B504460A4909F08DFA0A49204609F02F
:103E000089FA2046084909F085FA2046074909F051
:103E100081FA2046064A002100F00EFB002010BD6A
:103E200064360108A2360108013701085537010838
:103E3000EF370108F8B51E4617460A4629490446D9
:103E400009F068FA3EB301253A782749204609F07F
:103E500061FA6A0703D12549204609F05BFAAE42B0
:103E60001ED97A5D2046204909F054FA0135102DFB
:103E7000EFD11F49204609F04DFAB6B901251B497B
:103E8000204609F047FAAE422B4610D81749204683
:103E900009F040FA15E001251649204609F03AFAE2
:103EA0001449204609F036FAE0E700252B46FA5C73
:103EB00020461149A2F120035F2B28BF2E2209F0D2
:103EC00029FA0135102D06D06B07DCD107492046B1
:103ED00009F020FAD7E720460849BDE8F84009F084
:103EE00019BA00BF053801083C2D01084D4A0108E8
:103EF000422D01084B4A01082C3801080C380108F2
:103F00002DE9F04304468068884689B0D0F8201334
:103F100015461F46002960D14FF44A720DF01AFA77
:103F2000E0680AF0D8F9A06800F543704FF42F79E3
:103F30004FF41F760CF0C1FEA06830440DF0D5F9A7
:103F4000A0680022012183191036484409F11409A0
:103F50000DF0A2F9B6F52F7FEED1A369002602215C
:103F60001E6066F38205A06800F51E7009F0B0F8C7
:103F7000A368502220465A871822A3681A8721680E
:103F800009F0F2F9A368164A4146C3F87452606812
:103F900003681D682346A8470546D0B9A3680122D7
:103FA0001A75D4E90A010022002304950094CDE992
:103FB00006230E234FF400620393109BCDE9017397
:103FC000084B06F031FEA368C3F82003616A06F0CF
:103FD00057FD284609B0BDE8F0836FF07705F8E794
:103FE00063D10008193D000810B5044613460A467F
:103FF0000146064801F010FB23691B7923B12046D6
:10400000BDE8104009F000BA10BD00BF21D400087F
:1040100038B50B46154648B91449154A521AB3EB40
:10402000920F05D251F82350284638BD84680CB948
:104030000025F9E70F4A94420AD30F4A944207D267
:1040400018462268294690472B68002BECD1EFE7F1
:104050000A4A944202D30A4A944205D3246814229D
:104060005343E518E358F0E70133F8E7381D01083A
:10407000641D0108541E0108541E0108641D010836
:10408000541E0108F7B516460278002304462D2A6F
:10409000019305D16FF015030020336003B0F0BD2C
:1040A0000C4F0DF02FFA05460A46C35101A92046D0
:1040B00007F012FDEB59222B02D16FF02103EBE741
:1040C000002BE7D1019BA342E4D01B78002BE5D065
:1040D000E0E700BF0C0000008368D3F874329B0651
:1040E00003D50249406909F0AABB7047841E010844
:1040F000014909F0A4BB00BF303101080A1E0DDCE4
:104100000ED042238168D1F87412890608D5002A9E
:1041100004494069B8BF524209F091BB4123F1E71D
:10412000704700BF283801080A1E0DDC0ED044235A
:104130008168D1F87412890608D5002A04494069BB
:10414000B8BF524209F07BBB4323F1E7704700BF81
:10415000283801082DE9F04785680446DFF86490A7
:1041600005F15600FCF7AEFB002386B295F83C70D3
:104170009846A268558FED1BB54209DB002E1FDD66
:104180005633606910491A44BDE8F04709F057BB3F
:104190001D44563349462A4492F856A082F8568068
:1041A000A26860691A4409F04AFBA3682B4483F8AB
:1041B00056A0A3685B8FDB1B0027F61A2B46D8E7B7
:1041C000BDE8F0876E2901081932010808290A465E
:1041D00017D8836893F83E10914212D083F83E209E
:1041E000082A8368D3F8743205D0990609D50549A1
:1041F000406909F024BB9B0603D50349406909F0D7
:104200001EBB70472F380108891E010838B50D46BE
:1042100009780446FFF7DAFF6A78072A11D8A368FD
:1042200093F83F1091420CD083F83F20A368D3F855
:1042300074329B0605D560690249BDE8384009F033
:10424000FEBA38BD38380108F8B583680446B3F8BB
:104250005020002A55D0B3F85210002951D05531C2
:1042600003F156050B441846A84206D3014611F83F
:104270000169202E3CD0A8423CD286B2471C9DB298
:10428000AB1B9BB2591CD21A014438460DF048F8BA
:10429000A268711B2046B2F8503013FA81F309B2BC
:1042A000A2F85030A368B3F850201344002283F8DA
:1042B000562009F02EFBA368D3F874329A0603D572
:1042C0001049606909F0BBFA3B460F4A08212046B5
:1042D00009F03DFC2046FFF7FFFEA368D3F87432D7
:1042E0009B060ED560690949BDE8F84009F0A7BAF8
:1042F0000846B9E7014611F80169202EBDD00846ED
:10430000B9E7F8BD8E1E010819320108921E010896
:104310002DE9F04104460D4617460AB1FFF7DCFED1
:10432000A368B3F85220D3F87412563213444A07E4
:1043300021D51846DFF84C80FCF7C4FA0646A6B92A
:10434000A368B3F85020A3F85220A06809F084FABB
:1043500020B107B115B16069FFF7CAFE6942204676
:1043600009B2BDE8F04109F0D4BA41466069013EA6
:1043700009F065FAE3E7044A0821204609F0E7FB63
:10438000DEE700BF0D4201081932010813B583684A
:1043900004468DF80710D3F87422D00725D5B3F85A
:1043A0005210B3F850208A421FD0481C9DF80720B5
:1043B000A3F852000B4483F85620A368D3F8741274
:1043C000890710D5D3F87432606913F0040F0A49D5
:1043D00018BF2A2209F033FA204609F04FFA10B12B
:1043E0006069FFF785FE02B010BD01220DF10701E3
:1043F000204609F0B9FBF6E72C38010810B5044651
:104400008368094A022109F0A2FBA368D3F8743239
:104410009B0707D52046FFF79DFE2046BDE81040CC
:1044200009F052BA10BD00BF19320108014909F064
:104430007FBD00BF303101082DE9F04F0E4600214D
:1044400089B0044617460D4603AA304601F101081B
:10445000FFF7DEFDB0B995B127B13A4608212046F5
:1044600009F075FB00211E4FDFF87890DFF878A087
:1044700003AA304601F10108FFF7CAFD60B909B08F
:10448000BDE8F08F006810B1FCF71CFA80B28542DD
:10449000414638BF0546D7E703688BB11A787AB131
:1044A000D0F804B04A4608212046CDE900533B46E7
:1044B00009F04DFBBBF1000F04D16069FFF7B6FFB7
:1044C0004146D5E7524620463B46082109F03FFBCE
:1044D000AA1D5946204692B209F037FDF0E700BF09
:1044E0005638010841380108372D0108F7B50F6823
:1044F00005460E46A7B13846FCF7E4F984B2094BED
:104500002846094A082100933B4609F020FBE21C9B
:104510007168284692B203B0BDE8F04009F015BDBD
:104520003C46ECE7523801084836010810B5074907
:104530000446FCF7B5F938B105492046FCF7B0F957
:10454000B0FA80F0400910BD0120FCE748380108AE
:104550004B38010810B583680446D3F874329B06C3
:1045600003D50649406909F067FDA3685022002081
:104570005A871822A3681A8710BD00BF961E01082B
:1045800008B5836902491A6808F0C4FE002008BD16
:10459000593801082DE9F3410E4905460E4C08F043
:1045A000B9FE0E4E0022DFF83880B44202F1010756
:1045B00003D3002002B0BDE8F081636A92B24146A5
:1045C00028460093303454F8283C08F0A3FE3A46BD
:1045D000EBE700BF69380108081D0108381D010814
:1045E00081380108024908B508F0BEFE002008BD68
:1045F0003131010873B5044600250D4EA2680DF156
:1046000006030121E06802F5AB7209F0C5FDBDF8B3
:104610000600A36840B12A4603F5AB733146204635
:10462000013508F077FEE9E783F8560102B070BD66
:104630009238010810B5044608F0D8FE0349024636
:10464000204608F067FE002010BD00BF8E33010831
:10465000022907B50BD153680C4900930C4B126823
:1046600008F074FE6FF0150003B05DF804FB83687A
:10467000084AD3F87432084913F0020F074B18BFE9
:104680001A4608F047FE0020EEE700BFB5380108E3
:10469000A03801089C380108BE380108702F0108B5
:1046A00010B583680446D3F874329A0603D50749D7
:1046B000406909F0C1FCA368D3F874329B0603D5A6
:1046C0000349606909F0B8FC002010BD9D1E010877
:1046D000A21E01080129F0B5044685B00AD053682E
:1046E0005E4900935E4B126808F030FE6FF01500D3
:1046F00005B0F0BD8368D3F87432990603D55949E3
:10470000406909F099FC6FF0F9012046FFF7F6FCCB
:10471000FA2120460025FFF707FDA0684FF48072BC
:10472000294600F5AB708DF80B504FF47A760CF0FB
:1047300011FE4D49606909F07FFC606908F064FE74
:10474000606801220DF10B0103681F6903ABB847D4
:10475000039BEBB9013E4FF47A700CF01BFAB6B232
:10476000002EEDD1A368D3F874329B0603D53F49E0
:10477000606909F061FCA368502220463C495A87D1
:104780001822A3681A8708F0D3FD6FF00700AFE77F
:104790009DF80B20A3681B2A52D093F856111B29B1
:1047A000CED1522A4CD15A19002382F85631A6682C
:1047B00096F857215B2A2AD106F25710022510F8E5
:1047C000011F2A4601353B29ADB223D1FF2AC9D0AA
:1047D00002F5AB7216FA82F1002211F8010F18BB34
:1047E000FA2A86F85601A16828BFFA22FA2B4A87CE
:1047F00028BFFA23A2681387A368D3F874329A06F5
:1048000003D51A49606909F017FC002070E786F8A3
:104810005631A7E703EB83033039B5F5807F01EB11
:1048200043018BB2CBD19DE7013502EB82023038D8
:10483000ADB200EB4200B5F5807F82B2CDD191E7F9
:104840002B440135ADB283F85621092D7FF678AFA0
:10485000A368002283F8562184E700BFB538010819
:10486000A0380108A81E010809390108AC1E01087A
:10487000CF3801082DE9F04F074689B01546894623
:1048800021B1104609F02DFD00285BD1032455E02D
:104890005C463CE029460AF5AB700CF0BDFD0646CF
:1048A000002854D0FCF70EF8314682B2601C08F1A3
:1048B0000108013230440CF033FD2246594630469F
:1048C0000CF020FD4FF020033355BAF8543001337B
:1048D0001C44AAF85440002401994B1C03AA4846E2
:1048E0000193FFF795FB0646E8B1002231682846A0
:1048F00009F09CFE0028EFD1D6F800B0D7F808A048
:10490000BBF1000FC4D05846FBF7DCFF84B2BAF805
:1049100054302344FF2BBDDD01242B460D4A0321D7
:10492000384609F014F9B8F1000F07D0B8682A46E4
:1049300000F1540100F5AB7008F096FE204609B076
:10494000BDE8F08F4FF0000802244146C5E702247D
:10495000E9E700BFD13D01082DE9F843054600AF66
:104960000C46002948D0DFF8B890D9F800305A0733
:1049700042D06E468AB0A3686A46D1E90001DFF8EA
:10498000A4C04FF00508C2E905C0C2E9071342F808
:10499000108F00234FF421514846FDF709FCD9F848
:1049A0000030B5465B0727D08AB06369D4E90301BC
:1049B0006A46DFF874C0C2E90713C2E905C042F8CD
:1049C000108F002348464FF42151FDF7F1FBD9F831
:1049D0000030B54658070FD0E3690121134A484615
:1049E00008F02AFAD9F80030590705D0A369104A0F
:1049F0000121484608F020FA012D0AD1EFF3058382
:104A000007480268520704D00A4A103B294608F0BA
:104A100013FA2146284605F0F7FBBD46BDE8F883AA
:104A2000D8020024233E0108523E0108813E0108BD
:104A3000903E0108BE3E010808B5034B1B6898472D
:104A4000BDE8084000F026B87400002430BFFFF72E
:104A5000FDBF00BF2DE9F0410B4E0546DFF82C806D
:104A6000324606EB0807CC1B094920460CF04AFCED
:104A7000A019083C424600210CF06CFC07F108002C
:104A8000C5F8A840BDE8F081000000000800000063
:104A9000541E0108074A936893F90E10002907DB9A
:104AA0005269934204D0044A536843F080535360E0
:104AB000704700BF2C17002400ED00E0F8B5374C1C
:104AC00006460D4623685B0703D03549204609F0AA
:104AD00051FC344B9B6ADF0451D52368580703D03F
:104AE00031492E4809F046FC17202E4B9B6A1905C8
:104AF00007D523685A0703D02C49284809F03AFC07
:104B00001820284FBB6A9B0519D52368580703D086
:104B10002749224809F02EFCBB6BBA6A11040DD557
:104B20002268520704D0234A01211C4808F084F966
:104B300026B11C4A936A23F4004393621920194B4F
:104B40009B6A5B0507D523685F0703D01A491348A2
:104B500009F010FC1A20134B9A6AD60511D5236868
:104B6000590703D015490D4809F004FC1B200D4AD4
:104B7000936A43F47F43936200232B70F8BD1620A1
:104B8000B3E79B6A9A04F2D523685B0703D00C490C
:104B9000024809F0EFFB1C20E9E700BFD80200241F
:104BA000D13E010800ED00E0E73E0108F83E0108B3
:104BB0000B3F0108243F0108393F0108543F010819
:104BC0006C3F010810B52D4C23685A0703D02C49BF
:104BD000204609F0CFFB2B4B9B6A9B014BD52368EA
:104BE000580703D02849254809F0C4FB1E20254B4F
:104BF0009B6AD90107D523685A0703D023491F4868
:104C000009F0B8FB1F201F4B9B6A1B0307D52368C5
:104C1000580703D01E49194809F0ACFB2120194B55
:104C20009B6A590307D523685A0703D019491348CB
:104C300009F0A0FB2220134B9B6A9B0307D5236836
:104C4000590703D014490D4809F094FB23200D4B5C
:104C50009B6ADA0307D523685B0703D00F4907482F
:104C600009F088FB2420074A936A6FEA03436FEA3E
:104C70001343936210BD1D20B9E700BFD802002482
:104C80009B3F010800ED00E0B33F0108C63F01086B
:104C9000E03F0108FE3F0108234001083D400108B4
:104CA0002DE9F047454D8946804617462B68590740
:104CB00003D04349284609F05DFB424B9B6ADA0664
:104CC00039D52B685B0703D03F493C4809F052FBBC
:104CD00011243C4B9B6A1E0707D52B68580703D04D
:104CE0003A49364809F046FB1224DFF8D8A0DAF832
:104CF0002830990721D52B685A0703D034492F480B
:104D000009F038FBDAF83460DAF828301B0651D5A0
:104D10002B685C0705D02F4A33460121274808F04D
:104D20008BF8B9F1000F04D0264A936A23F0800370
:104D30009362132403E01024CBE76FF01506214B98
:104D40009B6AD80707D52B68590703D022491B480F
:104D500009F010FB14241B4B9B6A9A0607D52B689D
:104D60005B0703D01D49154809F004FB1524154BBA
:104D70009A6AD50602D49A6A90070AD55B68190523
:104D800007D54146304600F057FA10B180F3098844
:104D900002240C4B9A6A920603D55A6A22F40052F6
:104DA0005A629A6A204642F0FF029A6200233B70E0
:104DB000BDE8F0876FF01506BBE700BFD8020024FE
:104DC0006840010800ED00E07E400108F83E01085F
:104DD000B1400108C9400108DF4001086C3F0108EB
:104DE0002DE9F041744B8AB004460025D3F80480C5
:104DF00000AFC8F3080685F31188BFF36F8F02F088
:104E00007F43B3F17F4F0AD102F00C03082B15D179
:104E10006A480368590702D0694909F0ABFA0025CE
:104E20002C460023FB71F31E092B00F2A080DFE863
:104E300003F00A92958E9E9E9E9E9E9812074CBFEE
:104E40000C460125EDE75D4E33685B0703D05D49F5
:104E5000304609F08FFA0023FB71574BDA6A90074E
:104E600008D53368590703D05749544809F082FAE6
:104E700000233CE0DA6A002A04DA33685A07F7D0E4
:104E80005249F2E7DB6A5B00F2D53368580703D07A
:104E90004F494A4809F06EFA474BA1695A6942F4F2
:104EA00080725A61BFF34F8FBFF36F8F5A6931F829
:104EB000021C22F480725A61BFF34F8FBFF36F8FD1
:104EC0004DF60272914208D09A6AD2B292B3FA1D9C
:104ED00001212046FFF7E4FE3BE03368590705D087
:104EE00023683C4A0121354807F0A6FF2368FA7978
:104EF000E2B907F1080604F1200C2068083454F8E0
:104F0000041C3246644503C21646F6D17A6A002D67
:104F10004DD0C2F3080121B96FEA52226FEA422252
:104F20007A6207F108011846FFF716FD2837BD46DB
:104F3000BDE8F0819A6A12F47F4F04D0F91D012078
:104F4000FFF7BCFD05E09B6AB3F5803F90D3FFF708
:104F500039FE0346CBE7FA1D0021BAE7F91D002010
:104F6000EEE7164803685A0782D01B497EE71348CC
:104F700003685B073FF47CAF18F4F87F174AE846F4
:104F80008AB0174B18BF13466A461649103EC2E94D
:104F900005134FF40073D6611384134B42F8103F8E
:104FA00000234FF41151FDF703F9C54660E722F4E1
:104FB000FF7222F00102B3E700ED00E0D802002406
:104FC0002C410108574101086E4101088F41010839
:104FD0009D410108BC410108D84101081341010865
:104FE000FE400108FC41010804000001044B5A691D
:104FF00042F010025A615A6922F008025A61704761
:1050000000ED00E0EFF30880EFF3098101B572468F
:10501000FFF7E6FE01BD00BF102080F311880B48AA
:105020004FF0AA014FF404620BF0EFFD07484FF474
:105030000461401880F30988EFF3148002210843CB
:1050400080F31488BFF36F8F00F0BAF84023002478
:10505000BFF34F8F0549064BCA6802F4E062134361
:10506000CB60BFF34F8F00BFFDE700BF00ED00E056
:105070000400FA05084B9B6883420BD1EFF30583CC
:1050800043B1064B5A6842F080525A605A6A22F481
:1050900000425A620BF05BBF2C17002400ED00E0C9
:1050A0000A4A6FF00A019368C3F8B0100849C3F8C0
:1050B000AC004B6843F080534B60002383F31188AE
:1050C000BFF36F8F9368D3F8B00070472C1700249C
:1050D00000ED00E010B50446EFF31183102383F3D5
:1050E0001288BFF36F8F0C4B4FF0006258699860C5
:1050F0000A4B5A600A4BD0F8A8201A600022D0F858
:10510000AC30C0F8AC2083F31188BFF36F8F00F090
:10511000FFF8204610BD00BF2C17002400ED00E072
:105120000C1500240B498A684FF030001044EFF34F
:10513000098C80E8F01F74467046FFF7CBFFA64647
:1051400004498A6802F1300090E8F01F8CF3098866
:10515000704700002C1700241EF0040F0CBFEFF363
:105160000880EFF30980816911F8021C0229FFD041
:1051700001B509F0FBF801BD00B2002807DB0123EF
:10518000410900F01F00024A834042F82130704775
:1051900000E100E000B2013100284FEA0111C9B27C
:1051A00006DB00F1604000F5614080F800137047B5
:1051B00000F00F00014B1954704700BF14ED00E0E0
:1051C0000F4A08B522F07F020E4B9A60BFF34F8F53
:1051D000BFF36F8FD3F8882022F47002C3F88820C1
:1051E000EFF3148323F0040383F31488BFF36F8F6A
:1051F00005F00AF906F01CF900F060F805F056F920
:105200000000000800ED00E042F8203C203A009B3E
:1052100008495360019B21F001019360029B916159
:10522000D3604FF08073D36100230265C0F8AC30C7
:10523000704700BFC51900080A4A0346906878B154
:1052400013F1160FD0F8980005D0A0F140029A4251
:1052500005D8834203D2814228BF00207047002036
:10526000704700BF2C17002415460D4A0E4608B59E
:105270000C4B9060D0F8A8201A6000F049F82C463A
:1052800086F309884FF00000074B984720464FF0FF
:1052900000014FF000024FF00003044C204700BF14
:1052A0002C1700240C15002485E30008C5190008FC
:1052B000014B10221A61704700ED00E00023044802
:1052C0001021C2180133A32B82F80013F9D17047C3
:1052D00000E100E008B5EFF30583064A103B02EB5E
:1052E000C30152F8330049688847BDE80840FFF71A
:1052F000D1BB00BF58170108024B0121024A0348E5
:1053000000F092B80000052400000024CC2301081E
:10531000D0F898204021054B403A18461A60044ABC
:10532000C3E90112012100F089B800BF1015002463
:1053300000000B1508B503461148D0F89020C2F3C1
:105340000722013A93420AD90E480268520703D055
:105350000D4A012107F070FD6FF0150008BDC0F87F
:1053600098300A6822F01F021A4342F01002C0F877
:105370009C208A6842F00102C0F8A0201846EDE7A0
:1053800000ED00E0D402002413420108F0B50E46FF
:1053900085B01F4604460025B54210DA606828B380
:1053A000AFB1431E18420DD0124803685B0704D00A
:1053B000114A2B46012107F03FFD6FF01502104600
:1053C00005B0F0BD1F28EFD921680B42ECD123684E
:1053D00001A9019308F0EAFFA3680343D0B2039345
:1053E000FFF7A8FF10F1160FE7D0421C01350C346F
:1053F000D2E700BFD402002439420108044B052241
:10540000C3F89420BFF34F8FBFF36F8F704700BF77
:1054100000ED00E0BFF35F8F024B0022C3F8942041
:10542000704700BF00ED00E010B5034C0123227867
:10543000FFF7ACFF207010BD8F1700240B4A08B592
:1054400000231278FFF7A2FF10F1160F07D0084AC9
:105450000021D2F89030C3F30723984200DB08BD47
:10546000C2F898000130C2F8A010F2E78F170024AC
:1054700000ED00E0584859492DE9F043D0F890304C
:1054800085B00D68C3F307239D4200F2A180FFF7AA
:10549000C1FF49680022954201F10C011AD1504C1C
:1054A0006846504F2570FDF73BF900250646DFF8AA
:1054B0003881DFF83891AE421FD123780020464969
:1054C000D1F89020C2F3072293427BDB0020FFF744
:1054D00095FF4CE0C0F8982051F80C3C23F01F03D6
:1054E0001343013243F01003C0F89C3051F8043CE0
:1054F00043F00103C0F8A030CDE700984FEA051C47
:1055000000EB0511CB683B40B3F5000F44D00AD83F
:10551000B3F5001F2ED0B3F5800F34D0B3F5801F44
:1055200010D00135C7E7B3F1807F3ED0B3F1007FE3
:10553000F7D150F80C30886808F038FF4A6840F41A
:10554000802009E050F80C30886808F02FFF40F008
:1055500088504A6840F43020039001A92078CDE9B2
:105560000123FFF7E7FE002828DA6FF0150005B0E9
:10557000BDE8F08350F80C30886808F017FF4A68DF
:1055800040EA0800E8E750F80C30886808F00EFFA1
:105590004A6840EA0900DFE750F80C30886808F0F4
:1055A00005FF4A6840F08270D6E750F80C308868F2
:1055B00008F0FCFE4A6840F08870CDE7237801339C
:1055C0002370AEE7C1F898300133C1F8A00077E747
:1055D0004FF0FF30CBE700BF00ED00E0F01E010808
:1055E0008F1700240000F0FF0000081100000207E0
:1055F00008B5024B1B689847002008BD1C15002405
:10560000034B044A1860937843F002039370704789
:105610001C15002478000024F0B587B007460E461C
:1056200014460021102268461D460BF093FE02230B
:105630002A4621468DF802306846044BCDE90476AF
:10564000019306F0AFFA07B0F0BD00BFCDE300084C
:105650000649074821F00701C1F1105208B502F5CB
:10566000A02206F055FF002008BD00BFD73C002453
:10567000201500244FF0FF324FF0FF33014804F0B3
:10568000C1BF00BF88000024014805F033B800BF47
:105690008800002438B50546FFF7ECFF08210848CC
:1056A0002A4606F0BFFE044628B925B1054B0C2258
:1056B0000BF028FF1A50FFF7E7FF204638BD00BF68
:1056C000201500240C00000010B50446FFF7D2FF9F
:1056D0000348214606F05CFEBDE81040FFF7D4BF4A
:1056E0002015002408B500F0B7F80A49012200236C
:1056F000416109490361C0E900220A6007490A6063
:10570000074A1360074A1360074AC0E9023313606F
:1057100008BD00BF31310108B8000024B4000024E6
:1057200034150024301500242C1500242DE9F041F7
:1057300007460E46154600F08FF8C36804461BB9AD
:1057400043691A78002A41D10023E3606368BB42B1
:1057500056F8232008DB324B6361204600F062F8E4
:105760004FF0FF30BDE8F081511C616192F800807C
:10577000B8F12D0FEFD1911C616151782D29A160F5
:1057800004D192786AB901336360E4E749B9244BE4
:105790004146284663610BF004FE0028DDD0C4F8C2
:1057A0000880D4F80880284641460BF0FAFDB8F18D
:1057B0003A0F636900D070B91B7813B9636801337D
:1057C0006360204600F02EF83F20CBE75A1C426170
:1057D0001B788360E5E742783A2A0BD000222261E9
:1057E0001B7813B9636801336360204600F01AF830
:1057F000A068B7E718786268094928B9013297426A
:10580000626004DD56F82230C4E90431EAE76161E0
:1058100020462D783A2DD5D100F004F82846A1E78E
:10582000313101080268074B1A604268064B1A6062
:105830008268064B1A60C268054B1A600269054B04
:105840001A607047B8000024B40000243415002406
:10585000301500242C150024004870479C000024BB
:10586000084B0246596811B11968884207D0D868B8
:1058700030B1996804488A4218BF00207047184622
:10588000704700BF381500244015002402460B461F
:10589000014804F0B7BE00BF28030024014804F00B
:1058A00029BF00BF280300242DE9F74F8246084690
:1058B0000F469046FBF706F84FF0FF3183464FF056
:1058C000FF30FFF7E3FF1B4B4FF000091C684E460B
:1058D0009C4208BF00245B685CB9FFF7DFFF36B36A
:1058E000CAF80060B8F1000F1DD1002003B0BDE878
:1058F000F08FA569A94512D8AB4510D3012D03D966
:105900007A5D2F2A00D052B92A46E16838460193C1
:105910000BF054FD0028019B04BFA94626469C427B
:10592000DBD02468D8E7B369C8F80030DDE76FF052
:105930000100DBE7BC0000242DE9F74380469146D7
:105940000D4639B10846FAF7BDFF012802D92B7878
:105950002F2B0CD03A4803685A0702D0394908F077
:105960006DFE6FF01504204603B0BDE8F083D8F853
:105970000420002A5DD1294601A8FFF795FF041EE7
:1059800007DA2F4803685B07EDD02F4908F056FE71
:10599000E9E7019E96F820309F0702D519F0120F13
:1059A0004AD1F3691A68C2B119F0400719D019F049
:1059B000020F09D1224803685C0702D0234908F08E
:1059C0003DFE6FF00C04CEE75B694BB91C480368E1
:1059D000590702D01E4908F031FE6FF08504C2E776
:1059E0000127C8F804604A46F369294640461B6807
:1059F0009847041E0BDA124803685A0703D0224660
:105A0000144908F016FE0023C8F80430ABE788F804
:105A10000890002FA7D0F369002140465B699847A2
:105A2000041EA0DA064803685B07ECD022460A4948
:105A3000E7E76FF00F0496E76FF01D0493E700BFF0
:105A4000B402002463420108774201088F42010832
:105A5000BD420108DD420108F242010838B5446840
:105A600005466CB1E369DB697BB19847041E09DA2E
:105A7000074803685B0703D02246064908F0D9FDB2
:105A8000204638BD00236B60FAE76FF08504F7E726
:105A9000B40200240E43010810B543687BB1DB69F2
:105AA0005B687BB19847041E07DA084803685B0708
:105AB00003D02246064908F0BCFD204610BD6FF019
:105AC0000804FAE76FF08504F7E700BFB40200248A
:105AD00024430108F7B505460E4611B10B782F2B6C
:105AE0000BD02A480368590702D0294908F0A6FDBF
:105AF0006FF01504204603B0F0BD4368002B3FD182
:105B00000768002F3CD123493046FAF7C9FE044606
:105B100080B94FF0FF304FF0FF31FFF7B7FE1E4A5C
:105B20006C601368934214BF1F4627462F60FFF72F
:105B3000B5FEDFE73A46314601A8FFF7B5FE041E81
:105B400007DA124803685A07D4D0144908F076FDE2
:105B5000D0E7019BDA69126AAAB16B603146DB6952
:105B600028461B6A9847041EC4DA0848C5E900772E
:105B700003685B07BED02246094908F05AFDB9E721
:105B80006FF00F04B6E76FF08504B3E7B4020024AA
:105B9000394301082F2D0108BC0000247742010879
:105BA000524301082DE9F843476806460D466FB396
:105BB000FB695B6A002B5FD04F1CDFF8C490DFF8F5
:105BC000C480736829463046DB695B6A9847041EC7
:105BD00013DB6B7873B12B78012B0BD14946384618
:105BE000FAF75EFE0028ECD041463846FAF758FE38
:105BF0000028E6D02046BDE8F883234803685B0709
:105C0000F8D02246214908F014FDF3E7036813B9E0
:105C10004B700024EEE7DFF878804FF0FF304FF054
:105C2000FF31FFF733FED8F80040D8F80430444580
:105C300008BF002424B96FF00104FFF72FFED9E755
:105C40003268944214D1012328460C2200F8013B0B
:105C5000E16819440BF0C4FB00236B732B61D8F887
:105C600004309C4218BF2768FFF718FE3760D0E762
:105C70009C42E0D02468DDE76FF08504BAE700BFFE
:105C80006D4301086C430108B40200246F4301080E
:105C9000BC00002438B54468054614B904602046A9
:105CA00038BDE3699B6A7BB19847041E08DA08484F
:105CB00003685B07F3D02246064908F0BAFCEEE71A
:105CC0000023C5E90033EAE76FF08504E7E700BF8A
:105CD000B40200248943010837B5054630B1FAF70C
:105CE000F1FD012802D92B782F2B0BD01A4803681D
:105CF0005C0702D0194908F0A1FC6FF0150420469A
:105D000003B030BD0022294601A8FFF7CDFD041ED7
:105D100007DA114803685907F1D0114908F08EFCE1
