:020000040800F2
:10000000C03C0024B57C000815770008A17C0008DE
:10001000A17C0008A17C0008A17C00080000000071
:10002000000000000000000000000000E97D000862
:10003000A17C000800000000B57D0008EDA00008CC
:10004000597F0008597F0008597F0008597F000830
:10005000597F0008597F0008597F0008597F000820
:10006000597F0008597F0008597F0008597F000810
:10007000597F0008597F0008597F0008597F000800
:0402FC00FFFFFFFF02
:1003000090F800F06DE9024520F007016FF0000C55
:1003100010F0070491F820F040F049804FF00004FD
:100320006FF00700D1E9002391F840F000F10800D8
:1003300082FA4CF2A4FA8CF283FA4CF3A2FA8CF310
:100340004BBBD1E9022382FA4CF200F10800A4FA77
:100350008CF283FA4CF3A2FA8CF3E3B9D1E90423CB
:1003600082FA4CF200F10800A4FA8CF283FA4CF302
:10037000A2FA8CF37BB9D1E9062301F1200182FABC
:100380004CF200F10800A4FA8CF283FA4CF3A2FAC2
:100390008CF3002BC6D0002A04BF04301A4612BAD0
:1003A000B2FA82F2FDE8024500EBD2007047D1E9D3
:1003B000002304F00305C4F100004FEAC50514F062
:1003C000040F91F840F00CFA05F562EA05021CBF33
:1003D00063EA050362464FF00004A9E7000000004D
:1003E000A2EB0300704700BF02780B78012A28BFF8
:1003F0009A42F5D16DE9044540EA0104CDE902676E
:100400006FF0000C4FEA447212B380EA010414F05A
:10041000070F6AD100F0070420F0070004F003057D
:1004200021F007014FEAC505F0E8042314F0040F9A
:10043000F1E804670CFA05F462EA040266EA0406CD
:100440000AD063EA0403624667EA0407664603E0EB
:10045000F0E80423F1E8046782FA4CF582EA060426
:10046000A4FA8CF46CBB83FA4CF583EA0705A5FA71
:100470008CF595B950E9022351E9026782FA4CF5EF
:1004800082EA0604A4FA8CF483FA4CF583EA0705A1
:10049000A5FA8CF52543DBD09CB92DBAB5FA85F4C5
:1004A00024F0070427FA04F1DDE9026723FA04F3D4
:1004B00003F0FF0001F0FF01FDE80445A0EB01009F
:1004C000704724BAB4FA84F424F0070426FA04F13D
:1004D000DDE9026722FA04F202F0FF0001F0FF01F9
:1004E000FDE80445A0EB0100704714F0030F3CD178
:1004F00010F0030428D150F8082B51F8083B82FA79
:100500004CF582EA0305A5FA8CF55DB950F8042C88
:1005100051F8043C82FA4CF582EA0305A5FA8CF501
:10052000002DE8D02DBAB5FA85F424F0070423FA9B
:1005300004F122FA04F202F0FF0001F0FF01FDE8ED
:100540000445A0EB010070474FEAC40420F003000B
:1005500050F8082B21F0030151F8083B0CFA04F481
:1005600062EA040263EA0403C9E710F003041AD044
:10057000A1EB040120F00300E40750F8042B06D09F
:100580000FD28B785FFAA2F4E41A06D12BB1CB78A4
:100590005FFAB2F4E41A00D11BB920465DF8104BA3
:1005A000704701F1040150F8042BCC0721F003013E
:1005B00051F8043B48D824D222F07F4482FA4CF50B
:1005C00094EA1325A5FA8CF50AD165B951F8043BD4
:1005D00084EA0204B4EB036F0ED150F8042BEBE76E
:1005E0004FEA132355E035F07F454DD10878FDE8FB
:1005F0000445C0F1000070474FEA126203F0FF03A8
:1006000047E002EA1C4482FA4CF594EA1345A5FA45
:100610008CF50AD165B951F8043B84EA0204B4EBC5
:10062000034F0CD150F8042BEBE74FEA134330E0B3
:1006300015EA1C4528D10B884FEA124229E04FEAFF
:10064000124203EA1C4324E002F0FF0482FA4CF554
:1006500094EA1365A5FA8CF50AD165B951F8043B03
:1006600084EA0204B4EB032F09D150F8042BEBE722
:100670004FEA13630DE015F0FF0F05D10B684FEA49
:10068000122223F07F4304E04FF00000FDE8044510
:10069000704712BA1BBA82FA4CF482EA0304A4FA35
:1006A0008CF5B5FA85F402FA04F203FA04F34FEA82
:1006B0001260FDE80445A0EB1360704700000000E5
:1006C00001F0FF01102A2BDB10F0070F08D010F803
:1006D000013B013A8B422DD010F0070F42B3F6D107
:1006E000F0B441EA012141EA014122F007047FF020
:1006F00000070023F0E80256083C85EA010586EA77
:10070000010685FA47F5A3FA87F586FA47F6A5FAB2
:1007100087F68EB9EED1F0BC01F0FF0102F00702BE
:1007200032B110F8013B013A83EA010313B1F8D169
:100730000020704701387047002D06BF354603384A
:10074000073815F0010F07D1013015F4807F02BF83
:10075000013015F4C03F0130F0BC0138704700BFD4
:10076000844641EA000313F003036DD1403A41D3BC
:1007700051F8043B40F8043B51F8043B40F8043B7B
:1007800051F8043B40F8043B51F8043B40F8043B6B
:1007900051F8043B40F8043B51F8043B40F8043B5B
:1007A00051F8043B40F8043B51F8043B40F8043B4B
:1007B00051F8043B40F8043B51F8043B40F8043B3B
:1007C00051F8043B40F8043B51F8043B40F8043B2B
:1007D00051F8043B40F8043B51F8043B40F8043B1B
:1007E00051F8043B40F8043B51F8043B40F8043B0B
:1007F000403ABDD2303211D351F8043B40F8043BAB
:1008000051F8043B40F8043B51F8043B40F8043BEA
:1008100051F8043B40F8043B103AEDD20C3205D3BA
:1008200051F8043B40F8043B043AF9D2043208D0B2
:10083000D2071CBF11F8013B00F8013B01D30B8824
:1008400003806046704700BF082A13D38B078DD002
:1008500010F003038AD0C3F10403D21ADB071CBFD4
:1008600011F8013B00F8013B80D331F8023B20F83E
:10087000023B7BE7043AD9D3013A11F8013B00F877
:10088000013BF9D20B7803704B7843708B788370FF
:100890006046704781F0004102E000BF83F00043F2
:1008A00030B54FEA41044FEA430594EA050F08BF0B
:1008B00090EA020F1FBF54EA000C55EA020C7FEACF
:1008C000645C7FEA655C00F0E2804FEA5454D4EB4C
:1008D0005555B8BF6D420CDD2C4480EA020281EA16
:1008E000030382EA000083EA010180EA020281EA4E
:1008F0000303362D88BF30BD11F0004F4FEA0131A0
:100900004FF4801C4CEA113102D0404261EB4101AE
:1009100013F0004F4FEA03334CEA133302D0524234
:1009200063EB430394EA050F00F0A780A4F10104F0
:10093000D5F1200E0DDB02FA0EFC22FA05F280182A
:1009400041F1000103FA0EF2801843FA05F3594110
:100950000EE0A5F120050EF1200E012A03FA0EFC8F
:1009600028BF4CF0020C43FA05F3C01851EBE371B9
:1009700001F0004507D54FF0000EDCF1000C7EEBD6
:1009800000006EEB0101B1F5801F1BD3B1F5001F14
:100990000CD349085FEA30004FEA3C0C04F1010433
:1009A0004FEA445212F5800F80F09A80BCF1004F5C
:1009B00008BF5FEA500C50F1000041EB045141EADE
:1009C000050130BD5FEA4C0C404141EB0101013CA7
:1009D00028BFB1F5801FE9D291F0000F04BF014696
:1009E0000020B1FA81F308BF2033A3F10B03B3F168
:1009F00020020CDA0C3208DD02F1140CC2F10C02F8
:100A000001FA0CF021FA02F10CE002F11402D8BF55
:100A1000C2F1200C01FA02F120FA0CFCDCBF41EA21
:100A20000C019040E41AA2BF01EB0451294330BDF0
:100A30006FEA04041F3C1CDA0C340EDC04F11404CD
:100A4000C4F1200220FA04F001FA02F340EA0300A4
:100A500021FA04F345EA030130BDC4F10C04C4F1EA
:100A6000200220FA02F001FA04F340EA03002946CA
:100A700030BD21FA04F0294630BD94F0000F83F414
:100A8000801306BF81F480110134013D4EE77FEAF7
:100A9000645C18BF7FEA655C29D094EA050F08BF43
:100AA00090EA020F05D054EA000C04BF1946104624
:100AB00030BD91EA030F1EBF0021002030BD5FEA68
:100AC000545C05D14000494128BF41F0004130BD90
:100AD00014F580043CBF01F5801130BD01F00045E4
:100AE00045F0FE4141F470014FF0000030BD7FEA57
:100AF000645C1ABF194610467FEA655C1CBF0B4652
:100B0000024650EA013406BF52EA033591EA030F68
:100B100041F4002130BD00BF90F0000F04BF002160
:100B2000704730B54FF4806404F132044FF0000593
:100B30004FF0000150E700BF90F0000F04BF00210C
:100B4000704730B54FF4806404F1320410F0004572
:100B500048BF40424FF000013EE700BF42004FEA6D
:100B6000E2014FEA31014FEA02701FBF12F07F43EA
:100B700093F07F4F81F06051704732F07F4208BFA1
:100B8000704793F07F4F04BF41F40021704730B5A8
:100B90004FF4607401F0004521F000411CE700BFF4
:100BA00050EA010208BF704730B54FF000050AE077
:100BB00050EA010208BF704730B511F0004502D578
:100BC000404261EB41014FF4806404F132045FEA7A
:100BD000915C3FF4D8AE4FF003025FEADC0C18BF23
:100BE00003325FEADC0C18BF033202EBDC02C2F115
:100BF000200300FA03FC20FA02F001FA03FE40EAA7
:100C00000E0021FA02F11444BDE600BF70B54FF0AA
:100C1000FF0C4CF4E06C1CEA11541DBF1CEA135588
:100C200094EA0C0F95EA0C0F00F0DEF82C4481EAF0
:100C3000030621EA4C5123EA4C5350EA013518BF10
:100C400052EA033541F4801143F4801338D0A0FBFD
:100C500002CE4FF00005E1FB02E506F00042E0FBAA
:100C600003E54FF00006E1FB03569CF0000F18BFB0
:100C70004EF0010EA4F1FF04B6F5007F64F5407458
:100C800004D25FEA4E0E6D4146EB060642EAC621EB
:100C900041EA55514FEAC52040EA5E504FEACE2E58
:100CA000B4F1FD0C88BFBCF5E06F1ED8BEF1004F5B
:100CB00008BF5FEA500E50F1000041EB045170BDD7
:100CC00006F0004646EA010140EA020081EA03011B
:100CD000B4EB5C04C2BFD4EB0C0541EA045170BD17
:100CE00041F480114FF0000E013C00F3AB8014F191
:100CF000360FDEBF002001F0004170BDC4F10004DA
:100D0000203C35DA0C341BDC04F11404C4F120055A
:100D100000FA05F320FA04F001FA05F240EA0200B5
:100D200001F0004221F0004110EBD37021FA04F6EB
:100D300042EB06015EEA430E08BF20EAD37070BDA5
:100D4000C4F10C04C4F1200500FA04F320FA05F004
:100D500001FA04F240EA020001F0004110EBD37006
:100D600041F100015EEA430E08BF20EAD37070BD76
:100D7000C4F1200500FA05F24EEA020E20FA04F34F
:100D800001FA05F243EA020321FA04F001F00041FE
:100D900021FA04F220EA020000EBD3705EEA430E6F
:100DA00008BF20EAD37070BD94F0000F0FD101F09E
:100DB0000046400041EB010111F4801F08BF013CD7
:100DC000F7D041EA060195F0000F18BF704703F015
:100DD0000046520043EB030313F4801F08BF013D9C
:100DE000F7D043EA0603704794EA0C0F0CEA135558
:100DF00018BF95EA0C0F0CD050EA410618BF52EA12
:100E00004306D1D181EA030101F000414FF0000017
:100E100070BD50EA410606BF1046194652EA430625
:100E200019D094EA0C0F02D150EA013613D195EA99
:100E30000C0F05D152EA03361CBF104619460AD1E1
:100E400081EA030101F0004141F0FE4141F47001EB
:100E50004FF0000070BD41F0FE4141F4780170BDDB
:100E600070B54FF0FF0C4CF4E06C1CEA11541DBF40
:100E70001CEA135594EA0C0F95EA0C0F00F0A7F842
:100E8000A4EB050481EA030E52EA03354FEA01316F
:100E900000F088804FEA03334FF0805545EA131382
:100EA00043EA12634FEA022245EA111545EA10654A
:100EB0004FEA00260EF000419D4208BF964244F1E1
:100EC000FD0404F5407402D25B084FEA3202B61A00
:100ED00065EB03055B084FEA32024FF480104FF4D4
:100EE000002CB6EB020E75EB030E22BFB61A754648
:100EF00040EA0C005B084FEA3202B6EB020E75EBDB
:100F0000030E22BFB61A754640EA5C005B084FEA42
:100F10003202B6EB020E75EB030E22BFB61A75460F
:100F200040EA9C005B084FEA3202B6EB020E75EB1A
:100F3000030E22BFB61A754640EADC0055EA060EDB
:100F400018D04FEA051545EA16754FEA06164FEA1E
:100F5000C30343EA52734FEAC2025FEA1C1CC0D1CA
:100F600011F4801F0BD141EA00014FF000004FF057
:100F7000004CB6E711F4801F04BF01430020B4F118
:100F8000FD0C88BFBCF5E06F3FF6AFAEB5EB030CD0
:100F900004BFB6EB020C5FEA500C50F1000041EBCD
:100FA000045170BD0EF0004E4EEA113114EB5C049A
:100FB000C2BFD4EB0C0541EA045170BD41F480116D
:100FC0004FF0000E013C90E645EA060E8DE60CEA75
:100FD000135594EA0C0F08BF95EA0C0F3FF43BAF92
:100FE00094EA0C0F0AD150EA01347FF434AF95EA49
:100FF0000C0F7FF425AF104619462CE795EA0C0F2D
:1010000006D152EA03353FF4FDAE1046194622E7F9
:1010100050EA410618BF52EA43067FF4C5AE50EAD3
:1010200041047FF40DAF52EA43057FF4EBAE12E7C3
:101030004FF0FF3C06E000BF4FF0010C02E000BFA4
:101040004FF0010C4DF804CD4FEA410C7FEA6C5C87
:101050004FEA430C18BF7FEA6C5C1BD001B050EA2A
:10106000410C0CBF52EA430C91EA030F02BF90EA15
:10107000020F0020704710F1000F91EA030F58BFD4
:10108000994208BF90422CBFD8176FEAE37040F036
:10109000010070474FEA410C7FEA6C5C02D150EAD4
:1010A000013C07D14FEA430C7FEA6C5CD6D152EA8F
:1010B000033CD3D05DF8040B704700BF8446104654
:1010C00062468C461946634600E000BF01B5FFF753
:1010D000B7FF002848BF10F1000F01BD4DF808ED23
:1010E000FFF7F4FF0CBF012000205DF808FB00BFF4
:1010F0004DF808EDFFF7EAFF34BF012000205DF84E
:1011000008FB00BF4DF808EDFFF7E0FF94BF01209A
:1011100000205DF808FB00BF4DF808EDFFF7CEFF9B
:1011200094BF012000205DF808FB00BF4DF808EDDA
:10113000FFF7C4FF34BF012000205DF808FB00BFAB
:101140004FEA410C7FEA6C5C02D150EA013C0AD1C3
:101150004FEA430C7FEA6C5C02D152EA033C02D1B5
:101160004FF0000070474FF0010070474FEA410216
:1011700012F5001215D211D56FF47873B3EB6252E9
:1011800012D94FEAC12343F0004343EA505311F010
:10119000004F23FA02F018BF404270474FF00000A2
:1011A000704750EA013005D111F0004008BF6FF0E0
:1011B000004070474FF00000704700BF80F00040D3
:1011C00002E000BF81F0004142001FBF5FEA41031F
:1011D00092EA030F7FEA226C7FEA236C6AD04FEA1F
:1011E0001262D2EB1363C1BFD21841404840414064
:1011F000B8BF5B42192B88BF704710F0004F40F416
:10120000000020F07F4018BF404211F0004F41F431
:10121000000121F07F4118BF494292EA030F3FD0FD
:10122000A2F1010241FA03FC10EB0C00C3F1200310
:1012300001FA03F100F0004302D5494260EB40009F
:10124000B0F5000F13D3B0F1807F06D340084FEA0A
:10125000310102F10102FE2A51D2B1F1004F40EBFF
:10126000C25008BF20F0010040EA03007047490067
:1012700040EB0000013A28BFB0F5000FEDD2B0FA04
:1012800080FCACF1080CB2EB0C0200FA0CF0AABF27
:1012900000EBC25052421843BCBFD04018437047C5
:1012A00092F0000F81F4000106BF80F400000132CB
:1012B000013BB5E74FEA41037FEA226C18BF7FEAA2
:1012C000236C21D092EA030F04D092F0000F08BFE4
:1012D0000846704790EA010F1CBF0020704712F0CB
:1012E0007F4F04D1400028BF40F00040704712F10A
:1012F00000723CBF00F50000704700F0004343F06F
:10130000FE4040F4000070477FEA226216BF0846A4
:101310007FEA23630146420206BF5FEA412390EA67
:10132000010F40F4800070474FF0000304E000BF5D
:1013300010F0004348BF40425FEA000C08BF70470E
:1013400043F0964301464FF000001CE050EA0102D2
:1013500008BF70474FF000030AE000BF50EA0102E7
:1013600008BF704711F0004302D5404261EB4101D4
:101370005FEA010C02BF84460146002043F0B643F9
:1013800008BFA3F18053A3F50003BCFA8CF2083A1E
:10139000A3EBC25310DB01FA02FC634400FA02FC27
:1013A000C2F12002BCF1004F20FA02F243EB02002E
:1013B00008BF20F00100704702F1200201FA02FC90
:1013C000C2F1200250EA4C0021FA02F243EB020083
:1013D00008BF20EADC7070474FF0FF0C1CEAD052C7
:1013E0001EBF1CEAD15392EA0C0F93EA0C0F6FD088
:1013F0001A4480EA010C400218BF5FEA41211ED066
:101400004FF0006343EA501043EA5111A0FB013151
:101410000CF00040B1F5000F3EBF490041EAD37126
:101420005B0040EA010062F17F02FD2A1DD8B3F1A2
:10143000004F40EBC25008BF20F00100704790F011
:10144000000F0CF0004C08BF49024CEA502040EA63
:1014500051207F3AC2BFD2F1FF0340EAC250704729
:1014600040F400004FF00003013A5DDC12F1190F67
:10147000DCBF00F000407047C2F10002410021FAD9
:1014800002F1C2F1200200FA02FC5FEA310040F1F1
:10149000000053EA4C0308BF20EADC70704792F06A
:1014A000000F00F0004C02BF400010F4000F013AA2
:1014B000F9D040EA0C0093F0000F01F0004C02BF9D
:1014C000490011F4000F013BF9D041EA0C018FE70C
:1014D0000CEAD15392EA0C0F18BF93EA0C0F0AD012
:1014E00030F0004C18BF31F0004CD8D180EA010038
:1014F00000F00040704790F0000F17BF90F0004FD1
:10150000084691F0000F91F0004F14D092EA0C0FB2
:1015100001D142020FD193EA0C0F03D14B0218BF45
:10152000084608D180EA010000F0004040F0FE408B
:1015300040F40000704740F0FE4040F44000704727
:101540004FF0FF0C1CEAD0521EBF1CEAD15392EAA6
:101550000C0F93EA0C0F69D0A2EB030280EA010C96
:1015600049024FEA402037D04FF0805343EA11112F
:1015700043EA10130CF000408B4238BF5B0042F18D
:101580007D024FF4000C8B4224BF5B1A40EA0C0032
:10159000B3EB510F24BFA3EB510340EA5C00B3EB64
:1015A000910F24BFA3EB910340EA9C00B3EBD10F52
:1015B00024BFA3EBD10340EADC001B0118BF5FEAA4
:1015C0001C1CE0D1FD2A3FF650AF8B4240EBC250CD
:1015D00008BF20F0010070470CF0004C4CEA50208E
:1015E0007F32C2BFD2F1FF0340EAC250704740F4DD
:1015F00000004FF00003013A37E792F0000F00F0CF
:10160000004C02BF400010F4000F013AF9D040EA4C
:101610000C0093F0000F01F0004C02BF490011F4E0
:10162000000F013BF9D041EA0C0195E70CEAD153D8
:1016300092EA0C0F08D142027FF47DAF93EA0C0FBF
:101640007FF470AF084676E793EA0C0F04D14B02A3
:101650003FF44CAF08466EE730F0004C18BF31F055
:10166000004CCAD130F000427FF45CAF31F000434F
:101670007FF43CAF5FE700BF42000ED2B2F1FE4FF5
:101680000BD34FF09E03B3EB126209D44FEA002351
:1016900043F0004323FA02F070474FF00000704718
:1016A00012F1610F01D1420202D14FF0FF307047B9
:1016B0004FF00000704700BF7BB972B90029BEBF70
:1016C00000204FF0004106E008BF00281CBF6FF06B
:1016D00000414FF0FF3000F057B8ADF1080C6DE954
:1016E00004CE002909DB002B1ADB00F04FF8DDF8EF
:1016F00004E0DDE9022304B07047404261EB4101A0
:10170000002B1BDB00F042F8DDF804E0DDE90223EA
:1017100004B0404261EB4101524263EB4303704726
:10172000524263EB430300F031F8DDF804E0DDE9F9
:10173000022304B0404261EB41017047524263EB27
:10174000430300F023F8DDF804E0DDE9022304B0F0
:10175000524263EB4303704753B94AB9002908BFAB
:1017600000281CBF4FF0FF314FF0FF3000F00CB8E5
:10177000ADF1080C6DE904CE00F008F8DDF804E0E6
:10178000DDE9022304B07047704700BF2DE9F04740
:1017900086468C460846089E154674461946002B18
:1017A00040F0C2808542B2FA82F245D94AB1C2F114
:1017B000200300FA02FC2EFA03F3954043EA0C0CD6
:1017C00094404FEA154EA8B2BCFBFEF8230C0EFB6A
:1017D00018CC08FB00F943EA0C43994528D9EB18CB
:1017E00008F1FF3704D2994502D9A8F102072B442A
:1017F000A3EB0903A4B2B3FBFEFC0EFB1C330CFBF2
:1018000000F044EA0344A04214D92C190CF1FF3330
:1018100004D2A04202D9ACF102032C44241A43EAB8
:1018200007401EB1D440002334607360BDE8F087E8
:101830004746DDE76346F1E792BB431B01214FEAD0
:10184000154EAFB2B3FBFEFC200C0EFB1C330CFBA1
:1018500007F840EA0343984562D9EB180CF1FF30D2
:1018600004D2984502D9ACF102002B44A3EB080343
:10187000A4B2B3FBFEFC0EFB1C330CFB07F744EADF
:101880000344A7424ED92C190CF1FF3304D2A742CE
:1018900002D9ACF102032C44E41B43EA0040C0E748
:1018A000C2F1200320FA03F1954090402EFA03F391
:1018B00003434FEA154EAFB2B1FBFEFC0EFB1C100A
:1018C000190C0CFB07F841EA0041884504FA02F4C0
:1018D00022D969180CF1FF3004D2884502D9ACF145
:1018E00002002944A1EB08019BB2B1FBFEFC0EFBF8
:1018F0001C110CFB07F743EA01439F420ED9EB187A
:101900000CF1FF3104D29F4202D9ACF102012B4409
:10191000DB1B41EA004192E76046E3E76146F7E7F7
:101920006046A3E76346B7E7834206D916B90021AC
:1019300008467BE7C6E900E0F9E7B3FA83F78FB919
:10194000834201D3724508D8BEEB020460EB030367
:1019500001209C461EB9002168E73846FAE7C6E92F
:10196000004CF8E7C7F1200CBB4022FA0CF41C43F2
:101970002EFA0CF120FA0CF3B84001434FEA144957
:101980000EFA07F5B3FBF9F81FFA84FE09FB1830CD
:101990000B0C08FB0EFA43EA00439A4502FA07F2E1
:1019A00040D9E31808F1FF3004D29A4502D9A8F1D2
:1019B00002002344A3EB0A0389B2B3FBF9F809FB45
:1019C000183308FB0EFE41EA03418E452CD96118FD
:1019D00008F1FF3304D28E4502D9A8F10203214455
:1019E00043EA0040A0FB0298A1EB0E014145CE4620
:1019F000434602D306D14D4504D2B9EB020E68EB43
:101A000004030138002EA6D0B5EB0E0261EB0301F2
:101A100001FA0CFC22FA07F34CEA0303F940C6E989
:101A2000003198E74046C5E74346D9E7000000008B
:101A30002DE9F047044688B08846174615F0F6FFB2
:101A40000A220023FFF788FEB8F1010F06460D4673
:101A500007D102460B462046274912F0BCFC002065
:101A600011E07F6825483946FEF7BEFC70B1394663
:101A70002348FEF7B9FC48B120463A46214912F006
:101A8000C6FC6FF0040008B0BDE8F0873046294678
:101A900017A3D3E90023FFF70FFE06460D461046B5
:101AA0001946194A0023FFF707FE80460F461046E5
:101AB00019464EF660220023FFF7FEFD8246894656
:101AC000104619464FF47A720023FFF7F5FDCDE971
:101AD00002A9CDE90623CDE9040132462B460B4984
:101AE0002046CDE9008712F076FCB8E7AFF300801E
:101AF000005C260500000000A8990108B9990108BA
:101B0000BC990108C599010880EE3600DD990108ED
:101B10002DE9F04F016C9FB016461F46CDE90467D2
:101B20002B9D039049B1426C4A60012393400446C7
:101B30008B600FF027FB00232364B7F10009B4BFCB
:101B4000012300232B60764BBCBF29F00049CDF860
:101B5000149033EA090300F0AA80DDE9043400227E
:101B6000184621460023CDE90801FFF7B7FA804661
:101B700068B12A9A012313602C9B13B12C9A694BEC
:101B80001360694B0A930A981FB0BDE8F08F1CAB35
:101B900001931DAB00930398DDE908230FF026FEA7
:101BA0005FEA1955824640F09880DDE91C8545447E
:101BB00005F23243202B40F38383C3F1400309FA3B
:101BC00003F905F2124326FA03F349EA0300FEF78C
:101BD000A3FF0123013DA1F1F8711193534B0022A2
:101BE000FEF75CFE48A3D3E90023FFF70FF848A3F4
:101BF000D3E90023FEF754FE064628460F46FEF7BB
:101C00009BFF45A3D3E90023FFF700F802460B46EC
:101C100030463946FEF744FE06460F46FFF7A6FA61
:101C200000228346002330463946FFF761FA002838
:101C300040F01A83A8EB0508BBF1160F08F1FF343A
:101C400000F28B813A4D05EBCB05D5E90023DDE9A8
:101C50000801FFF74DFA002870D00023002C0BF18B
:101C6000FF3B1093C0F27E8100230B93BBF1000F6A
:101C70006ADA0B9BA3EB0B030B93CBF10003CDE9CB
:101C80000EB3289B092B4FF0000B65D8052B40F3B2
:101C90001C83043B28930025289B023B032B00F266
:101CA0002386DFE813F060045D04540438042A9AA4
:101CB000C9F3130942F20F7359EA060913601CD1E4
:101CC0002C9B002B00F02B861A4B0A9308332C9A7E
:101CD0000A9813601FB0BDE8F08FDDE90812C2F367
:101CE0001303084643F07F51CDF84480A5F2FF3539
:101CF000DDF8708041F4401170E72C9B002B40F020
:101D0000E7830D4B0A933EE761436F63A787D23F9A
:101D1000B3C8608B288AC63FFB799F501344D33FDA
:101D20000000F07FA9910108A89101080000F83F88
:101D3000C0860108CC910108D8910108B8F1000FC4
:101D400040F3608410900B9000230F93289BCDF8F4
:101D500038B0092B5C4499D90023CDE928330125FB
:101D60004FF0FF330C950693039B00215964069BAB
:101D7000189303980FF0E0F90A90002800F0BD8551
:101D8000039B0A9A1A64069B0E2B00F21581002D04
:101D900000F012810E9A002A40F33B84B24D02F00B
:101DA0000F0305EBC303D3E9008913461511DA05C8
:101DB00040F1FA83AD4BDDE90801D3E90823FFF7D1
:101DC0004FF8CDE9120105F00F0503277DB1A74EAD
:101DD000EB0708D540464946D6E90023FEF716FF33
:101DE0000137804689466D1006F10806F0D142465B
:101DF0004B46DDE91201FFF733F880468946109B18
:101E000043B19B4B002240464946FFF771F9002839
:101E100040F0F1843846FEF78FFE42464B46FEF70F
:101E2000F5FE944B0022FEF73BFD069B0646A1F112
:101E30005077002B00F0A9800E9B1993069B1293FC
:101E40000A9B894D49464046CDE914675E1CFFF761
:101E50008DF9129905EBC10353E902120746CDE94A
:101E60001612FEF769FE02460B4640464946FEF74B
:101E700015FD89460C993037DDE916238046FFB2FF
:101E8000002900F053847C490020FEF7E9FFDDE9DA
:101E90001423FEF703FD0A9D02460B46CDE91423E9
:101EA0002F7042464B46FFF741F9002840F09784D7
:101EB000CDE91AB4CDF858A0129DDDE914AB002786
:101EC0002AE00137AF4280F2DE846C4B504659461F
:101ED0000022FEF79BFE694B002282468B4640465D
:101EE0004946FEF793FE89468046FFF73FF90446D0
:101EF000FEF722FE02460B4640464946FEF7CEFC60
:101F0000303406F8014B52465B4680468946FFF75F
:101F1000EFF8002840F0B48442464B465449002074
:101F2000FEF7BCFC52465B46FFF7E2F80028C8D03B
:101F3000199BDDF858A00A9A374603F1010802E020
:101F4000974200F07C843E4617F8013D392BF7D0CC
:101F50000133DBB23B70454675E10123002C109341
:101F6000BFF682AEC8F101030B9300247EE638462B
:101F7000FEF7E2FD42464B46FEF748FE3D4B00228F
:101F8000FEF78EFC0646A1F150773D4B4046494690
:101F90000022FEF783FC32463B4680468946FFF727
:101FA000C5F8002840F05A8440464946324607F1B9
:101FB0000043FFF79DF828BB1D9B002BC0F29280C9
:101FC0000E9A0E2A00F38E80274D0E9B05EBC3055B
:101FD000D5E90034CDE90434299B002B19DA069B9E
:101FE000002B16DC0ED1264B0022DDE90401FEF7A2
:101FF0000DFE02460B46DDE90801FFF783F80028D5
:1020000000F02C844FF000090A9E4F46299BDD43C7
:1020100025E2DDE90445DDE9088922462B464046F4
:102020004946FEF71DFFFFF7A1F80646FEF784FDBF
:1020300022462B46FEF7EAFD0A9F0B46024649461A
:102040004046FEF72BFC06F1300307F8013B069BE8
:10205000012B00F012830125CDF818A09946DDE987
:1020600004ABA8462CE000BFC08601089886010892
:102070000000F03F00001C400000E03F0000244052
:102080000000144052465B4620462946FEF7E8FE13
:10209000FFF76CF80646FEF74FFD52465B46FEF72B
:1020A000B5FD08F101080B46024629462046FEF719
:1020B000F5FB06F13003C84507F8013B00F0DB8271
:1020C000B94B0022FEF7A2FD0022002304460D4674
:1020D000FFF704F80028D5D00E9DDDF818A00135D3
:1020E0003E46B0E00C9A002A40F0D28000230F9DBB
:1020F0000B9E0C931F4656B1002C08DDA6420B9A8E
:102100003346A8BF2346D21A0B92F61AE41A0F9B45
:1021100053B10C9B13B1002D40F0E88251460F9A49
:1021200003980FF0BFF98246039801210FF0D6F80B
:102130008146BBF1000F40F0B681289B012B40F394
:10214000CC810120204410F01F0000F09A80C0F1E3
:102150002003042B40F3DA810B9BC0F11C000344E5
:102160000B93064404440B9B002B05DD514603985A
:102170001A460FF0F1F98246002C05DD4946039816
:1021800022460FF0E9F98146109B002B40F0708148
:10219000069B002B40F348810C9B002B40F0A48051
:1021A0000E9D0135DDF82880069CDDF80CB0012677
:1021B00007E0514600230A2258460EF0EDFF013693
:1021C0008246494650460EF0D1FDA64200F130034A
:1021D00008F8013BEDDB069A002AC8BF16460A9AAA
:1021E000D8BF012602EB060B0024514601220398BA
:1021F00004930FF0B1F9494682460FF025FA002802
:1022000040F3E3810A9A02E05A4500F0E9815E4614
:102210000BF1FF3B16F8013C392BF5D001338BF85D
:102220000030DDF80C80494640460EF0ABFF57B158
:102230002CB1BC4203D0214640460EF0A3FF0398C8
:1022400039460EF09FFF039851460EF09BFF002386
:1022500033702A9B1D602C9B002B3FF494AC0A9892
:102260001E601FB0BDE8F08F5846FEF765FC324691
:102270003B46FEF733FF00287FF4DCAC0BF1FF3B5D
:10228000D8E41C230B9A1A440B921E441C446AE7A0
:10229000289A012A40F3A981069A0F9B551EAB424A
:1022A000C0F26B81002AA3EB050580F2DD820B9B57
:1022B000069A9E1A039801210FF010F807461AE7B4
:1022C000C3F1200306FA03F081E40125E4E4394672
:1022D000002303980A220EF05FFF189B002B07468D
:1022E00040F3EF820E950693002E00F33F81BBF181
:1022F000000F40F0DF81B8460A9E069C731E1C4406
:10230000049B0C9403F00103039C0F934946504631
:102310000EF02CFD3946834650460FF095F94246A3
:102320004946054620460FF0AFF9C26801460BF159
:102330003003002A3AD1089050460B930FF084F9ED
:102340000899069020460EF01DFF069A0B9B002A66
:102350005AD1289A1AB90F9A002A00F09A82002DB1
:1023600045DB0C9AB346B2420BF8013B00F0B98151
:10237000514600230A2220460EF00EFF47458246B2
:1023800039464FF000034FF00A02204636D00EF0D7
:1023900003FF4146074600230A2220460EF0FCFEBA
:1023A0005E468046B2E700BF0000244003980693D3
:1023B0000EF0E8FE002D069B06DB049A289902F039
:1023C00001020D432A432AD1514601220398049366
:1023D0000FF0C2F8494682460FF036F90028049BF8
:1023E00040F3E880392B00F02F820BF131030E9D72
:1023F00006F8013B3C460135474612E70EF0CCFE9D
:102400005E460746804681E7002DC0F27D8228990E
:102410000D430F990D4300F07782002AA1DD392B7F
:1024200000F012820133E2E7289B022B7FF7B4AE63
:10243000069B002B40F01D814946052203980EF0B3
:10244000ABFE0146814650460FF0FEF8002840F3EF
:1024500010810A9E0E9D312306F8013B0135039839
:10246000494601350EF08EFE002F7FF4E8AEEAE615
:10247000494650460FF0E8F80028BFF689AE5146AD
:10248000002303980A220EF087FE0E9B5D1E0C9B14
:102490008246002B7FF41BAF189B002B40F3FF817B
:1024A0000E9D06937EE601465A4603980EF0FAFF0B
:1024B000289B012B81466CDD4FF0000BD9F81030C2
:1024C00009EB830318690EF0B7FEC0F1200039E66E
:1024D000924B0A930333FFF7FABB049B002B7FF464
:1024E00030AEDDE90412C2F31303002B7FF429AEF2
:1024F0008B4B134023B10B9B01330B93013401230E
:10250000BBF1000F40F0AE819B461AE63FF42BAEC4
:10251000C0F13C03B6E601230C93299B0E9A1344A9
:1025200018930133012B1E460693B8BF0126172EC0
:1025300040F3D581012204235B0003F11400B04273
:10254000114602F10102F7D9039B596411E40123FA
:102550000C93299B002B33DD189306931E46E6E768
:1025600000230C93D9E700230C93F2E73946039834
:1025700032460EF0F1FF0746B9E60F9B069A0F951B
:10258000EB1A9B440B9B1E46134414440B930025EB
:1025900090E6049B002B8FD1DDE90401C1F3130306
:1025A0000A46002B88D1A3E7DDE908230227CDE9FD
:1025B00012230BE47FF41BAFDA077FF518AF11E7A6
:1025C000012329930693FFF7CFBB03D1049BDB07BD
:1025D0003FF518AE5E461BF8013D302BFAD020E6E1
:1025E0000A9A3123013513701BE6119A002A00F074
:1025F000F98003F233430B9A0F9D16461A441C448C
:102600000B9257E6C8F1010304460B931090FFF7B5
:102610009BBB00F0EB800E9B424D5E4206F00F0329
:1026200005EBC303D3E90023DDE90801FEF7EEFA69
:102630003511CDE9120100F04D813B4E00230227F8
:1026400080468946E80709D5D6E900234046494631
:10265000FEF7DCFA01378046894601236D1006F14A
:102660000806EFD1002B7FF4CAABDDE91289FFF732
:10267000C6BB0A9ECAE4DDF818A00E9D02460B46B2
:10268000FEF70EF902460B46CDE906230135DDE9DA
:102690000423A846FEF74AFD40B9DDE90423DDE93D
:1026A0000601FEF71BFD18B1F10701D50A9A4AE4AD
:1026B0003E46C8E5796803980EF03EFD05460028C1
:1026C00000F026813B6902339A0007F10C010C30BF
:1026D000FEF746F80398294601220EF03DFF80469A
:1026E0000AE60E9D3C46013547467EE5DDF80C8046
:1026F00039462A4640460EF0D5FE52460146074668
:1027000040460EF019FE5146824640460EF03AFD14
:102710000F9B5B1B0F933FF407ADFFE4D8910108BB
:102720000000F07FC086010898860108DDE91401E9
:10273000FEF76CFA0A9B1F70129B012BCDE90C016E
:1027400000F0C680129F0A9BCDF844B01F447C4B1A
:10275000002240464946FEF759FA89468046FEF770
:1027600005FD8346FEF7E8F90BF1300B02460B46F8
:1027700040464946FEF792F806F801BBB74280464C
:102780008946E4D1DDF844B06E4B0022DDE90C014E
:10279000FEF786F802460B4640464946FEF7C6FC61
:1027A000002867D1DDE90C2366490020FEF776F8A2
:1027B00002460B4640464946FEF79AFC48B91D9B27
:1027C000002BFFF693AC0E9B0E2B3FF78FACFFF761
:1027D000FCBB3E46013F16F8013C302BF9D0199D59
:1027E000013530E51C9BC3F1360304E7DDE90889B8
:1027F0000227FFF704BB069B002B3FF4B8AB189BE6
:10280000002B7FF7D9AB0E9A1293013A4C4B1992D9
:10281000404600224946FEF7F9F980468946781C71
:10282000FEF78AF942464B46FEF7F0F9464B002286
:10283000FEF736F80646A1F15077FFF701BB08F125
:1028400001083123FFF786BB0E9D0A9AB346392350
:102850003C460BF8013B01354746D8E44FF00009F0
:102860004F46F6E59B4629E60B9B1E46134414444F
:102870000B931FE5199B0A9A03F10108FFF763BB4D
:10288000DDF858A0ABE7DDE91AB4DDF858A0FFF792
:1028900093BB392BD8D0002D3FF7A7ADA7E5289BD8
:1028A000022B0ADC189B069349460E9D0EF05EFA39
:1028B0000A9A00F1300313708DE4189B06930E956D
:1028C000B6E5289B022BF8DC189B0E9506930BE5CA
:1028D000374659E7DDE912890227FFF790BA039BD3
:1028E00000215964FFF745BA039B00255D64294622
:1028F00018460EF021FC0A90A8B9144B1448002287
:102900004FF4D5710FF08CF8002A7FF770AD5BE5BE
:102910000E4B0F482A4640F2EA210FF081F80D4B8A
:102920000A93FFF730B9039B0A9A1A644FF0FF33FA
:102930000122299518930C920693FFF73DBB00BF27
:10294000000024400000E03F00001C40DC91010832
:10295000F0910108CC91010800232DE9F3410146D3
:1029600005466846CDE9003305F0DCFE044640B17B
:1029700002462946164810F05EFE204602B0BDE829
:10298000F0812946134D2646DFF84C806F1C134812
:1029900010F051FE0F49684605F02CFF044680B93F
:1029A0006B7873B12B78012B05D139460C4810F0A8
:1029B00042FE0136EEE72A693946404610F03BFEFA
:1029C000F7E76846002C08BF344605F08BFFD4E7D4
:1029D0006E93010820170024A99301088993010828
:1029E0009E9301082DE9F043DFF86C8115468BB00A
:1029F0000646D8F80C703846FDF782FC6D68044630
:102A00002846FDF77DFC204402300BF0B3FB044662
:102A100040B93B46514A01213046009511F0CEFCA9
:102A2000012532E039460CF05DF84D4920460BF0A7
:102A3000D1FF294620460BF0CDFF2346494A082105
:102A4000304611F0BBFC404605F0FCFF054630B1B6
:102A5000454810F0F0FD20460BF094FB15E0CDE961
:102A600002008DF810000122214602A805F08CFD1D
:102A7000071E0EDA304623463C4A0121009711F02A
:102A80009DFC20460BF07EFB3D4628460BB0BDE882
:102A9000F08305A9204605F08FFF071E0BDA344AA4
:102AA0000121304611F08AFC20460BF06BFB02A896
:102AB00005F0FCFDE8E7099B08212E4A304611F09D
:102AC0007DFCDDF8249048460BF054FB074658B9CE
:102AD000294A0121304611F071FC20460BF052FBCF
:102AE00002A805F0E3FD9BE701464A4602A805F06F
:102AF000FBFDB0F1000812DA2346204A01213046DE
:102B0000CDF80080454611F059FC38460BF03AFBF1
:102B100020460BF037FB02A805F0C8FDB5E7434699
:102B20003046174A082111F049FCB9F1FE0F3B4627
:102B3000144A4FF0080198BF07F80950304611F0C9
:102B40003DFC38460BF01EFB02A805F0AFFD024825
:102B500006F042F87FE700BF98060024C193010801
:102B60004D980108FA9301080C9401082394010878
:102B70003594010852940108619401089394010866
:102B8000AA940108C49401082DE9F041A4B00022E0
:102B90000621794800AF794C02F0A0FA18B32368F7
:102BA0005E0704D0764A0121204611F07CF9DFF857
:102BB000D481754E4046C8F80C6005F043FF0028EC
:102BC00040F0D580714810F036FD404606F004F81C
:102BD0000546002845D06E4810F02DFD2846903758
:102BE000BD46BDE8F0813A1D0121634802F076FA46
:102BF000236818B15D07DAD0664AD4E703F007030B
:102C0000022B05D97B68644A0321204611F054F950
:102C100007F110020221584802F060FA054630B16F
:102C200023685807C3D05D4A01215448BDE739697C
:102C30005B4810F000FD7B6839695A48A3FB0131FD
:102C40001B0D43EA013110F0F6FC2A4607214A48E1
:102C500002F044FA0028AAD023685907A7D0524AA4
:102C6000E2E7404605F0EEFE054608B14F48B3E7FF
:102C70003046FFF771FE0346002845D122683873BD
:102C800002F00702022AC7E9010011D96D4688B097
:102C90006A464749C2E905164FF4007191834549D8
:102CA00042F8101F4FF4E651344801F023FFAD46BF
:102CB0008022354907F110000BF0B4FF2F233E4965
:102CC00007F11500BB820BF085FE1022381DB918E4
:102CD00005F05AFC054600B323685A0714D06C4629
:102CE00088B06A46354B536107F1100393614FF486
:102CF000007393832F4B42F8103F00234FF4E251AF
:102D00001E4801F0F7FEA5461E4805F065FF0021AC
:102D100042F210700AF080FEF9E7381D05F0C6FC9B
:102D2000274907F115007D750BF054FE07F11000DF
:102D300005F0FAFDB8B123685B0714D06C4688B083
:102D40006A46204B536107F1100393614FF40073FF
:102D50009383184B42F8103F4FF4E2512B4607483B
:102D600001F0C8FEA5460848FFF7F6FDCCE7164877
:102D700010F061FCC8E700BFD2940108B80A002433
:102D8000D594010898060024679501086C95010800
:102D90007B950108E9940108049501081395010841
:102DA0002D9501083D950108519501080C940108E5
:102DB0009295010803000001B2950108BB95010836
:102DC000D4950108D9950108F19501082DE9F04F36
:102DD00091B0840705460E46009302F00403DDF827
:102DE00068900293C2F3C203039203F101030593B7
:102DF00040F0BA81041D30B1072909D86FF01B00DB
:102E000011B0BDE8F08F01F00706341DC6F10806C9
:102E1000009B4FF000084FF0040A591E4FF0FF339B
:102E20004746C34601935346CDF810800DB1009A32
:102E300022600598002800F3E8809848009A8242B2
:102E400003D397488242C0F0E080039AA4EB050EBA
:102E500092074FEA9E0000F103810F2F00F2B1802C
:102E6000002D00F0058107F140020DEB020C019AE4
:102E70000CF8200C0CF8102C049801300490E7E0BA
:102E80007A285DD84B280ED8472859D829282DD81C
:102E9000252852D054D820287AD02338D0F1000BDE
:102EA0004BEB000B74E04C382E2849D8DFE800F0DB
:102EB0007048484848484848484848484B48484867
:102EC000484848484859484B4B595959704B6D48E8
:102ED0007048184B184848827F4B48484B487F0041
:102EE00000204FF0000B4FF0040A38E02A3801228E
:102EF000C0B202FA00F010EA0E0F49D110F0625C85
:102F00002FD110EA020B43D06046013C5444B4FB7D
:102F1000FAF40AFB04F4002D61D0A3EB050CA444E1
:102F2000B4453FF66BAF002868D1042B47D159F860
:102F3000043B2360043404232AE0019A013A0192FD
:102F40004FF0000B24E011F8010C6C2834D111F87B
:102F5000023C00206C2B8346C5D14FF0080A534633
:102F6000D3E709F10709073429F0070924F007041A
:102F7000F9E802AB35B106982044B0423FF63EAFC7
:102F8000C4E900AB08344FF0000B4FF0080A534679
:102F900011F8010F002878D0BBF1000F7FF470AF5B
:102FA0002528F5D1019B4FF0010B013301934FF020
:102FB000040AECE7584694E700208346A5E7082B6F
:102FC00002D06FF015001BE709F1070929F0070986
:102FD000F9E80223C4E9002308340823D8E768B9D4
:102FE000042B02D109F10409A4E7082BE9D109F166
:102FF000070929F0070909F10809EDE7059A013ADF
:10300000059259F8042B009210E7039A900720D5F7
:10301000A4EB050E4FF0010C4FEA9E00BEF5007FB9
:10302000CFD20F2FCDD8F5B107F14002C0B20DEBD2
:10303000020E019A0EF8200C0EF8102CBCF1000FB5
:103040003FF41AAF60F07F0008F101080EF8200C81
:103050000137C5F1080204344FF6DA7E069297E78D
:103060004FF0000CDAE7BCF1000F01D00136EFE7BA
:10307000029802360028EBD10098CDE90631FDF721
:103080003FF90644DDE90631E2E7631BB3F5806FE3
:1030900097D23DB9A6F10804E018B1E6307D0108E9
:1030A00004B601089B08029A28602B709DF8103026
:1030B000C2B1EB7085F80280B8F1000F05D008A806
:1030C0000022C5F1010C97420ED1C5F101030DF1AB
:1030D00020094FF0000A0DF1300B0193574512D132
:1030E000601B8DE66B70E5E710F8013B190608D50B
:1030F00004EB0C0E03F07F03B6453FF67FAE04F8F9
:10310000013B0132DFE7B8F1000F03D099F900204D
:10311000002A17DB029BD3B11AF80B2004F8012B0D
:103120000022019B98182044B0423FF667AE99F800
:103130000000009904F8010B20460392FDF710FBF4
:10314000039A14440AF1010A09F10109C6E799F842
:10315000002055F822300093029B009845F8223059
:10316000FDF7CEF8421CDCE76FF00D0048E600BF2B
:103170002DE9F04F97B00446894600AF90F802A0C1
:10318000D7F880B03B62CBF3C003FA62BB6141B9B0
:10319000457800780AEB800020444D4517D8A0EB15
:1031A0000409E378FB61BAF1000F02D01BF0010FB4
:1031B00016D1FB6953BBFB6A1BB13A6A49462046EC
:1031C00098474D4628465C37BD46BDE8F08F461C03
:1031D00009F101093046FDF793F801303044DCE78E
:1031E0002378626899007A62FA6A796104EB830154
:1031F000002A40F004814D460E4601EB0A094FF0CB
:1032000000084E4550D101EB0A0610E01BF0020FFA
:10321000D1D023789A0004EB83017A6162687A62E4
:10322000FA6A002A7BD14D4601EB0A0690461BF054
:10323000050F0CBF02230123FB62FB6906EB430A67
:103240000BF00203BB625645BCD016F8021B16F801
:10325000013C54F823909B4B994502D39A4B9945D6
:103260003AD3BB69002B44D0786A10F0ABF9002840
:103270003FD09648036813F0060F13D0E9468AB092
:103280006A46934B53617B6AC2E906314FF400737F
:103290001384904B42F8103F00234FF4125101F079
:1032A00029FCCD46023DCEE716F8013BF96254F801
:1032B0002300FDF725F8D7F884300130F96A4BB1C7
:1032C000D7F8883098453EBFD7F8843023F81800E7
:1032D00008F10108054494E7BB6923B1786A10F04E
:1032E00071F90028C5D11BF0010F05D1FB6AED1A59
:1032F000A9E7BB6A002BA6D04846FDF701F8D7F82E
:10330000843053B1D7F8883098453FBF431CD7F875
:10331000842022F8183008F10108054493E7BAF137
:10332000000F72D01BF0040672D0D046002607F1C1
:10333000480052463B61B962FDF712FAB96A3B692F
:1033400001EB0A02F969BA62FA695200FA60BA6AD4
:1033500002EB41023A610BF00202BA603A69B96AC3
:103360008A4257D11BF0020F62780CBF4FEA580116
:1033700000217A621BF0010F3244D2B240F09F80EC
:103380001BF0040F14BF40460020BB616270A070A8
:103390002046E1703A6A7969FB6A9847051EFFF694
:1033A00011AFBB6941463A6A07F1480023707B6A56
:1033B00084F802A06370FB69E370FB6A9847B0F180
:1033C0000008C0F2B5807B69A9EB0A013A6AC91A04
:1033D000FB68C91AD7E90A0398470028C0F2AA80F7
:1033E000A8444FF0000B07F1380A08EB0005B3457D
:1033F00072D300213A6AFB6A08469847E2E65646CD
:103400004FF0000807F1380093E75646D04697E79B
:10341000B04695E7BA6A12F8021B12F8015CBA626C
:1034200054F82500274A904202D3274A90421ED3DF
:10343000BA6932B1786A7B6010F0C4F87B68002802
:103440008CD1BA6802BB08F1280207F1300C08F1F0
:10345000010008F10208944407F158025FFA88F865
:1034600052FA80F00CF8101C00F8105C76E7BA698C
:103470003AB1786A7B6010F0A5F87B6800287FF489
:103480006DAF1BF0010F09D006F1280207F13000E3
:10349000711C161806F8205CCEB25FE71BF0040F13
:1034A0003FF45CAF08F1280207F1300008F1010198
:1034B00002EB000808F8105C5FFA81F84EE7002084
:1034C00063E700BF307D010804B60108A00A0024AC
:1034D0007C960108040000011BF80A3054F8239080
:1034E00087F83730D7F88430FBB133F81B803A6A5D
:1034F000012107F13700FB6A984700281ADB0544D1
:10350000B8F1000F06D14846FCF7FAFE00F10108B9
:103510001FFA88F83A6A41464846FB6A98470028ED
:1035200008DB05440BF1010B61E7D7F88480DEE787
:10353000454647E6054645E6014B1860704700BF23
:10354000BC06002430B5002587B0044600950595DB
:10355000CDE9030103A9054800F06EF8DDE9043068
:103560009842B8BF255407B030BD00BF13360108DC
:10357000F0B502460168084E00200A270B460131CB
:103580001C78355D6D0701D41360F0BD07FB004367
:10359000A3F13000F2E700BF659001082DE9F84F74
:1035A00015469A46D3788146224A0F466F2B12F869
:1035B00003B00BF0030B2BD026D8582B0CBF1026D2
:1035C0000A26DDF828803246002348463946FEF7B1
:1035D000C3F8092A08F1FF38D4B21ED83034B145F7
:1035E000E4B277F1000788F8004001D3D04511D844
:1035F0002B789B0605D5082E15D1AB7843F0080330
:10360000AB704046BDE8F88F03F0F703702BD5E7A9
:103610000826D6E781460F46D5E7BBF1010F0CBF60
:1036200037345734DBE7102EEBD1AB7843F010037F
:10363000E6E700BF659001082DE9F04F82469FB094
:1036400017461C4600250391387810B9284600F02B
:10365000A0BD252809D00399D0470028C0F299853C
:103660007B1C01350593059FEEE71822002110A869
:103670000BF0FCF87B78252B00F0BA800023791C36
:1036800098469E469C4618460E4611F8012B2B2A5A
:1036900000F0E18000F2D880202A00F0DF80232AA9
:1036A00000F0DF802BB19DF8483043F040038DF8E7
:1036B0004830B8F1000F05D09DF8483043F02003A2
:1036C0008DF84830BEF1000F05D09DF8483043F02A
:1036D00010038DF84830BCF1000F05D09DF848303C
:1036E00043F008038DF8483028B19DF8483043F086
:1036F00004038DF848309DF8483003F04401442914
:1037000003D16FF386138DF848309DF848302A2A8C
:103710000E9643F080038DF8483040F0A7809DF866
:10372000493043F001038DF84930731C1A782E2A72
:103730009DF849200CBF0121002161F341028DF861
:1037400049200CD15A1C0E925A782A2A40F09E80A9
:103750009DF84920023342F004028DF849201A787E
:103760006C2A00F0BF8000F2A180682A00F0A780D8
:103770006A2A00F0C0804C2A00F0C58013F8012BA3
:10378000782A05938DF84B2000F205816D2A00F20E
:10379000C780692A00F2FF80572A00F2DE80412AA2
:1037A00004D0A2F14503022B00F2F58002F0DF0203
:1037B0009DF84A300421A2F1410661F302039DF80D
:1037C000491072428DF84A30724162F3C7110A06FD
:1037D000CBB28DF8491000F11D8103F07802182A50
:1037E00040F007816FF3C6038DF849300023F6E0FF
:1037F0008DF84B30BB1C05939DF849209DF84A304D
:10380000D10703F0070040F1078154F8041B002999
:10381000049108DA9DF8481041F004018DF8481031
:10382000049949420491560740F1FE8054F8046B14
:10383000002E80F2FD809DF849206FF341028DF843
:1038400049204FF0FF36F3E02D2A0DD0302A7FF4C7
:1038500029AF012318E74FF0010C15E74FF0010ED7
:1038600012E74FF001080FE701200DE70EA8FFF760
:103870007FFE0E9BB3423FF459AF9DF84820139052
:10388000C00F60F341028DF848204FE70EA8FFF704
:103890006FFE9DF848301490C3F3400242EAD072A4
:1038A00062F341038DF848300E9B58E7742A26D006
:1038B0007A2A7FF463AF9DF8492006210CE05A78FC
:1038C000682A9DF8492006D1012161F3C60202331E
:1038D0008DF8492052E7022161F3C6028DF8492094
:1038E00001334BE75A786C2A9DF8492001D1042115
:1038F000EBE70321F0E79DF849200521ECE79DF86F
:1039000049200721E8E7BDF8482022F4F04222F0E0
:10391000020242F4804242F00202ADF84820DFE7A2
:103920006E3AD3B201229A4040F282431A429DF885
:10393000493037D112F0240F5FD1D1072BD503F0D6
:1039400078039DF84A200321A3F1400061F30202AD
:1039500043428DF84A20434141E0A2F15801012041
:10396000C9B200FA01F111F4624F7FF41FAF40F6C3
:10397000010319429DF849301AD111F4043F0AD0CD
:103980009DF84A2060F3020203F078038DF84A2084
:10399000402B7FF42BAF9DF8483043F001038DF8A6
:1039A000483023E79DF84A20022161F30202EBE749
:1039B0009DF84A10022003F0780360F30201402BC7
:1039C0008DF84A1002BF9DF8481041F001018DF8B2
:1039D0004810632A7FF40AAF003B18BF01239DF80B
:1039E0004820C2F340010B4363F341028DF84820A5
:1039F00002E713F0380FCED1F8E69DF84A200321F4
:103A000013F0780F61F3020214BF012300238DF835
:103A10004A20E4E70123E2E79DF948100029B4BFFA
:103A200013994FF0FF31FDE691077FF50AAF149E21
:103A3000002204289DF84910CDE9132207D18A07F6
:103A400005D49DF94920002AACBF06260D2603F0B7
:103A50000703C1F3C301012B32D1CB1E042B04D8C1
:103A6000DFE803F0204545202000236801294FEAC4
:103A7000E372CDE910321BD19DF94030DA17CDE960
:103A8000103204349DF8483006939B074FD0059BB5
:103A90003A46039950460FF021FE0028C0F2798380
:103AA0000544E0E554F8043BDA17CDE91032E9E7C4
:103AB0000229E6D11AB243F3C033CDE91023E0E77F
:103AC000022B24D1CB1E042B04D8DFE803F01810FE
:103AD00010181800012954F8043B4FF0000214D0CC
:103AE0000229CDE91032CDD19BB21093CAE7073439
:103AF00024F00704F4E80223CDE91023C2E754F8C8
:103B0000043B109300231193BCE7DBB2CDE7042BF9
:103B100008D1073424F00704D4E900230834CDE9A0
:103B20001023AFE7032BADD154F8043BDDE79DF83C
:103B30004B80B8F1780F3FF696ADB8F1570F5CD8CF
:103B4000B8F1250F00F0A480B8F1240F7FF68BADFB
:103B5000B8F1410F04D0A8F14503022B3FF683AD25
:103B6000DDE91023002BC0F24D810699080700F112
:103B70004C81C1F300194FEA4919C3F30A51C3F349
:103B80001303002940F0448152EA030014BF4FF0B0
:103B9000010C4FF0000CD802B8F1460F4FEAC227D3
:103BA00040EA525008BF4FF06608CDE90C700F4351
:103BB00040EAE170384300F0B681BCF1000F10D04C
:103BC0001B034FF0000C170343EA12533A46184602
:103BD000002880F25681BCF1000F40F05981CDE9F8
:103BE0000C730D9BA1F2FE3B43F000430D930021AB
:103BF0000520DDE90C230F4660E1A8F15803202BD6
:103C00003FF631AD01A252F823F000BFD73D0008C6
:103C10006736000867360008673600086736000810
:103C20006736000867360008673600086736000800
:103C3000613B000867360008833D0008973D000897
:103C4000613B0008613B0008613B000867360008E3
:103C5000973D000867360008673600086736000899
:103C600067360008DD3D0008D73D0008273D000805
:103C70006736000867360008A13C00086736000870
:103C8000D73D00086736000867360008D73D0008B2
:103C900003994046D0470028C0F27B820135E2E418
:103CA000002E109F3BDB314638460AF0EFFF002F15
:103CB0003FF4D9AC3E184FF00009F31B9DF84A20A1
:103CC00012F01001069100F05982023312F0400206
:103CD000DDF84C800892434418BF149ACDF81C803C
:103CE00018BF9B18049A002A40F36382D31A9DF8E8
:103CF00048205007C2F3800B049300F15A8251060A
:103D000040F14A82B9F1000F07D003994846D047E5
:103D10000028C0F23E820135D94630223DE23846C5
:103D2000FCF7EEFAC6E71098002800F022820DF1A9
:103D3000750312AA00214FF00009009317ABFFF79B
:103D40002DFCBDF84A30074603F0EF0343F4F0437F
:103D500043F01003ADF84A30002E0CDB0DF1750373
:103D60009DF84820DB1B6FF386129E428DF8482099
:103D700001D9F31A1393002F3FF475AC0DF17506BA
:103D80006DE0109B4FF000090DF15D0617AF8DF847
:103D90005C30012392E7069B1F0754BFC3F3001951
:103DA0004FF02B09DDE9102358BF4FEA4919002BCA
:103DB00006DA52424FF02D0963EB4303CDE910239D
:103DC0000DF1750312AA009317ABDDE91001FFF79F
:103DD000E5FB0746C0E74FF00009F1E7109B072914
:103DE0003FF641ACDFE801F00C04060C08080C0CAF
:103DF0001D7038E41D8036E4EA17C3E9005232E44E
:103E00001D6030E44FF02D09B7E64FF02B09B4E602
:103E100040F2FF70814231D108F10108A0491343FB
:103E20005FFA88F811F8081001F003011ED101298A
:103E30000BBF492369234E216E210CBF4622662207
:103E40008DF85C300DF15F069DF848308DF85D10FF
:103E50006FF386138DF85E208DF8483017AFF31B93
:103E6000B9F1000F3FF42AAF013327E7012915BF4D
:103E70006E234E23612141211A46E1E74FF0000CE9
:103E800089E6921801F1FF314FF0010C40419FE6A5
:103E9000CDE90C20A5E6520859460BF1010B42EA88
:103EA000C3725B08B3F1333FF5D200FB03FC01F1B1
:103EB000020BA2FB0023013F012163441BF1020F0F
:103EC000E9DB09B1CDE90C23BBF1000FDDE90C32D0
:103ED0002CDCCBF104010BF11C0BA1F1200002FA48
:103EE0000BFBCB4022FA00F0CA4043EA0B030792D7
:103EF00008F0DF020343472A7DD1F91C01DBBE42F3
:103F00002BDAA8F10208002E5FFA88F87CDD9DF814
:103F10004820013E920677D4B6F1000B18BF4FF04F
:103F2000010B721C27E04FF0000B60E602330CA877
:103F30000BF1FF3B07F1010742F10002CDE90C3222
:103F40000FF09DFBDDE90C32DB180BF1FF3B52411A
:103F5000002AF9DACDE90C32B6E79DF84820F61BC5
:103F600090064ED4B6F1000B18BF4FF0010BF219BA
:103F70004FF066084BD4102AA8BF102210204FF033
:103F800000610B900020CDE90E01DDE90E01002A51
:103F90003FD11B18079A42EB0101B1F1805F47D274
:103FA000CDE90C31069BB8F1660F03F0200240F01A
:103FB000C080002F47DC30238DF85C30002A71D19F
:103FC000002E40F3B7812E238DF85D3087B17B4200
:103FD0009DF84A20B342A8BF3346002BA6EB030648
:103FE0001393D4BF0023012363F345128DF84A20B5
:103FF0000DF15E0340E0B8F1660F4FF0000BB6D054
:104000008FE74FF0000BB2E74FF0000B89E700227B
:10401000B4E7400840EAC1704908CDE90E010EA896
:10402000CDE908230FF02BFB089A099B013AACE776
:104030005B080CA8013743EAC1734908CDE90C318C
:104040000FF01DFBAEE717AB0B9900290BDD0BA999
:104050000CA8CDE906320FF02AFB069B013F079A18
:1040600003F8010BF0D11397AAB9002E40F3608139
:104070002E2103F8011B0027002E1CDD0B9A002ABD
:1040800019DD0BA90CA806930FF011FB069B013E4E
:1040900003F8010BF0E72E2203F8012BEBE700BF3A
:1040A000649001082E238DF85D30002FA0D0002EE3
:1040B0008DDC0DF15E03BBF1000F4ED114961E4650
:1040C00008F0DF03452B23D1002F86F80080BABF0C
:1040D0007F422D232B23632F7370C9BF64220236C6
:1040E000B7FBF2F302FB13774FF00A02C8BF03F1EC
:1040F0003001B7FBF2F3C8BFB17003F1300102FB2E
:104100001373C8BF033630333170023606F8013CF2
:10411000139B002B2BDC149B002BD4BF002301230B
:104120009DF84A2063F3861200238DF84A203370ED
:1041300094E60BA90CA806920FF0B9FA069A30285B
:104140008DF85C0018BF07F1FF3712B9002E40F35D
:10415000F1802E238DF85D304AE71E46013B16F8AC
:10416000012C302AF9D02E2A08BF1E46A8E70123C9
:10417000D6E7724E81460523771F9FE5110748BF9A
:104180000133A3E5104609920399D0470028099A04
:1041900005DA1FB0BDE8F08F2022DDF810B05946D7
:1041A0000BF1FF3B0029EDDC049BCDF810B02B4454
:1041B0005D1AB9F1000F05D003994846D047002891
:1041C000E7DB0135089B002B77D09DF94930002BA8
:1041D00028DB3B46DFF8689118789B46013319F8D5
:1041E000002052073FD49DF84A30EF1B98065F44E9
:1041F00007D4424608F1FF38002A3BDC079B3B44CA
:104200009F1A9BF800002E280AD10399D047002856
:10421000BFDBB8F1000F07F1010731DC0BF1010B37
:104220005D4638E0B94699F80000C84609F1010931
:10423000702813D1EF1B4744149D3D44EB1B002B0A
:1042400033DC33464246039950460FF047FA0028C4
:104250009FDB3844049E0546064464E00399D0473A
:104260000028E0DA95E706930399D0470028069BDB
:10427000B2DA8EE703993020D0470028B9DA88E710
:104280000399302008F1FF38D047C0E70399D047A1
:104290000028FFF67EAF2878A846013519F80030CF
:1042A0005907F3D4A7EB0B07C5E703993020D04794
:1042B0000028FFF66EAF0137C0E79DF84A30DA06F6
:1042C00001D41B0706D503993020D0470028FFF6FC
:1042D00060AF0135069B3BB103999DF84B00D04779
:1042E0000028FFF656AF0135A84406E003993020B8
:1042F000D0470028FFF64DAF0135A8EB0503002B92
:10430000F4DC33463A46039950460FF0E7F90028AB
:10431000FFF63FAF28449DE703992020D0470028AF
:10432000FFF637AF0135731B002BF5DCFFF79BB9A8
:104330001746C0E60DF15D03BDE600BF35970108E5
:1043400065900108044608B5EFF31183102383F349
:104350001288BFF36F8F11F0B8FD204603F0C6FC42
:1043600002480FF068F910F0B9FEFCE73697010833
:10437000054B00205A6822F002025A605A6822F067
:1043800001025A60704700BF0010005C0F4B104ADA
:104390001A60104BDA6822F0070242F00202DA607B
:1043A0009A6942F440429A619A699204FCD50A4B98
:1043B0001A6841F20303B3EB124F06D1074AD2F851
:1043C000083143F00103C2F8083170478C0800241B
:1043D0000090D003004802580010005C008000519B
:1043E0002DE9F047044607464FF00109DFF85080F9
:1043F00014B93846BDE8F08794FAA4F5B5FA85F506
:1044000009FA05F32E0108EB05156FEA030A24EA01
:1044100003042B7B002BEBD058F806301B694BB9FB
:1044200046440422284607EA0A077368196800F020
:1044300021FBDDE7284698470028D9D1F0E700BFE7
:10444000DC84010830B5002289B00F490F4813F011
:10445000EFFA0022002300240D4D0E492846009457
:10446000CDE906230E234FF44072CDE90334CDE9A4
:104470000144094B08F0C8FF0849284608F0F8FE37
:10448000204609B030BD00BFA14400082810002418
:10449000680B0024801F0024C14700088E97010884
:1044A000014808F05BBD00BF4C0B00242DE9F0472C
:1044B00080461E480F460FF054FC064678B3002590
:1044C0002846BDE8F087237B6BB12368DB680BB11E
:1044D0002046984723681B69CBB9636804222046AD
:1044E000196800F0C7FA013610344C45EBD3B8F127
:1044F000000FE5D0002DE2D02846FFF771FF0546FA
:10450000002FF7D00021642009F086FAF2E7204658
:1045100098470028E1D00AFA06F31D43E3E7044C6C
:104520000546DFF810904FF0010ADEE77419002409
:10453000DC840108EC84010808B5034608462BB169
:10454000044A136000F07CFD002008BD6FF01500E8
:10455000FBE700BFC006002410B5044C237813B954
:10456000034808F0FBFC0123237010BD3E1F00240C
:104570004C0B002410B504460B480FF0F2FB5CB165
:104580000A4BBFF35B8F53E8001F013943E8001269
:10459000002AF8D1BFF35B8F054813F055FA0548A0
:1045A000BDE8104008F0DABC6C1900247019002432
:1045B000281000244C0B00240020064BBFF35B8F17
:1045C000014653E8000F43E80012002AF9D1BFF377
:1045D0005B8F70476C19002470B5FFF7EDFF084C36
:1045E0000546084EB44200D370BD63685B792BB1B9
:1045F00023685B6813B12946204698471034F1E7D9
:10460000DC840108EC84010810B5044C0449204600
:104610000FF075F9034B1C6010BD00BF5C0A00244D
:104620000C8801086419002408B5094A00234FF4D6
:104630007A7108481370084A1360084A1360FFF73C
:104640007BFFFFF7E1FFBDE8084000F063B900BF62
:104650003F1F00247D3D01086C19002470190024BF
:1046600001460022002301480FF06AB95C0A0024C9
:1046700001480FF000BA00BF5C0A0024024B01465B
:1046800018680FF04CBA00BF6419002401480FF0FD
:1046900081BA00BF5C0A0024324B2DE9F041187842
:1046A00000285DD0FFF7E4FF044698B12E4BBFF31E
:1046B0005B8F53E8001F013943E80012002AF8D14C
:1046C0002A4DBFF35B8FDFF8A880454526D32046EF
:1046D000FFF7D4FF274B284C1B68002B12DD13F08B
:1046E000A5F90A220023FDF737F8D4E90032C01AF1
:1046F00040F2E93361EB0201984271F1000101D30C
:10470000FFF76AFFD4E9003213F57A7342F1000231
:10471000C4E90032BDE8F041FFF7B8BF6B685B79D0
:104720003BB121784B0706D52B68214628461B68EC
:1047300098471035C9E726882046C1F3C20700F024
:10474000B9FAC6F382160246002EEDD00028EBDB44
:1047500001233946284600F0A7F9B042E9D3E3E740
:10476000BDE8F0813E1F002470190024DC8401089C
:10477000EC8401086C1900242010002470B50D4D44
:10478000297861B90C4C01200C4EFFF78FFEB44222
:1047900006D3FFF781FF0028FBD101232B7070BDEA
:1047A00063685B791BB1236820469B689847103487
:1047B000EDE700BF3F1F0024DC840108EC84010802
:1047C00000212DE9F0470846FFF770FE044648B384
:1047D0004FF4FA784FF0000909F03AF91A4B1860D3
:1047E00030B11A4B1B68092B02DD194808F0B6FBE3
:1047F0000025184FDFF858A044B12046FFF7F0FD20
:10480000044618B94FF0FF384FF0FF39FFF744FF67
:10481000064628B9B5B942464B46504608F0C4FB97
:104820003546E9E74FF0FF384FF0FF39D4E72B6802
:104830009B691BB100222846114698471035BD429E
:10484000F5D3E8E7044DFAE768190024701900244D
:104850004C0B0024EC840108DC84010813B51848D3
:104860000FF07FFA174B1B7873B1EFF3118410230D
:1048700083F31288BFF36F8FFFF70EFF84F3118865
:10488000BFF36F8F02B010BD0F4B1B68002BF9D028
:1048900050B9002200230D48CDE9002342F21072E6
:1048A000002309F08DFBEDE70928EBD1074813F051
:1048B000CBF8074802B0BDE8104008F04FBB00BF7E
:1048C000701900243F1F00246819002428100024B8
:1048D0004C0B0024064B10B504461B689847214634
:1048E000A06004480FF0A8F8BDE81040FFF7B6BF7D
:1048F000C00600245C0A0024044A054B9B1AB1EB55
:10490000D30F34BF52F83100002070476C84010887
:10491000DC8401080B4800210B4B1B1A043030B516
:10492000DB080A4C994200D130BD10F8312001312A
:10493000256802F0070225F007052A4344F8042BF6
:10494000F0E700BF6C840108DC840108A00A0024A1
:10495000F8B50B4F06460B4D0024ED1BED08AC429D
:1049600003D14FF0FF342046F8BD57F8340020B192
:104970003146FBF739FD0028F5D00134EFE700BFE1
:104980006C840108DC84010800282DE9F047884682
:1049900015461F461DDADFF898904FF0000A254EA5
:1049A0005446A6EB09063609B24509F1100902D1B1
:1049B0002046BDE8F08759F80C0C3B462A46414694
:1049C00000790AF1010AFFF7DFFF844238BF04468D
:1049D000EAE7194B194AD21AB5EBD20F25D203EBED
:1049E000C5031C79BC4228BF3C46C0B20722144E06
:1049F000002100EB400056F82530824023EA0203F4
:104A000004F0070282401343032223FA02F0033228
:104A100000F00700814238BF01461E2AF5D123F07D
:104A200007030B4346F82530C2E70024DDE700BF4B
:104A3000DC840108EC8401086C840108DC84010832
:104A4000A00A0024F8B5094D0646094B0F4600247C
:104A5000ED1AED08AC4200D3F8BD22B201343B465A
:104A600000213046A4B20FF0A4F9F3E7DC8401087A
:104A70006C84010838B50B4B0D4611464268C31AC9
:104A800004461B110133137143689971FFF7DAFF74
:104A9000636801221D6063685A71BDE83840FFF702
:104AA0005BBD00BFDC84010870B14168097973B156
:104AB000002A17DBCBB20C4903EB430351F8220069
:104AC000D84000F0070070474FF0FF31EFE707498B
:104AD0000748401AB2EBD00F3ABF01EBC201087988
:104AE0001846704704207047A00A00246C8401080F
:104AF000DC8401082DE9F04F8FB0C1F34A280D4640
:104B0000914604AF0C0DB8607B60B8F1000F67D020
:104B1000002607F114034FF0040B4FF00A0AC7F800
:104B20000C8032467E624846C7E90766019307F16A
:104B30001C03CDF808B0CDF800A0F968FEF718FB0B
:104B4000B0F5006F034620D32A48036813F0060F20
:104B500017D06C468AB0D9F8041004AB264D1A461B
:104B6000C3E9055140F2FF71D9614FF40071198416
:104B7000224B42F8103F4FF412513346FFF7BAFF71
:104B8000A5462C37BD46BDE8F08FC0F30A0804F1F6
:104B900017003B60184468F3532520F00700800895
:104BA000FFF75EFD044690B13B6800F11001144A26
:104BB0004846F961C7E9083607F11403CDF808B093
:104BC000CDE900A307F11C03F968FEF7D1FA68F3F9
:104BD00053257B68B96820462A460FF014F9D0E7C0
:104BE00004F1170020F007008008FFF739FD0446A4
:104BF000EDE700BFB00A0024A397010804000001FC
:104C0000DB3D01082DE9F04F87B0044693469846F6
:104C10000391DDE91279DDE9105ADFB13B465246D6
:104C200010210020CDF80090CDF81490FEF7CEF8BA
:104C3000B0F5006F06460ED31C48036813F0060F4C
:104C400030D040F2FF731A4A022107B0BDE8F04F9E
:104C50000FF032B93E4604F0070405F117000BF0DF
:104C6000070BE400304444EA8B1420F0070044EAC8
:104C70004624800844EA0554FFF7F2FC054640B19B
:104C80003FB13B46524631461030CDF80090FEF71A
:104C90009DF8434622460399284607B0BDE8F04FE9
:104CA0000FF0B1B807B0BDE8F08F00BFB00A002424
:104CB000E2970108406820B1034BC01A40F38F000F
:104CC00070474FF0FF307047A00A00240EB403B5C0
:104CD00003AB0146054853F8042B01930FF011F97B
:104CE00002B05DF804EB03B0704700BF113F01084C
:104CF000CA0605D48B064CBF02490349FFF7E6BF3D
:104D0000704700BF4E9C01081A9801082DE9F04F2A
:104D100089B09A4604460D46149B90469DF84CB0C7
:104D20000693159B179E0593169B0493BBF1000FEA
:104D300000F09D8006F4807306F0020907930FF0DF
:104D400036F8024600283ED092492046FFF7BEFFC3
:104D50000746B9F1000F08D016F0440F35D12A46A6
:104D60008D492046FFF7B2FF074406F0010353B117
:104D70008A4B20468A4953F82B208A4B002A08BFC9
:104D80001A46FFF7A3FF06F48073002B49D006F004
:104D90000803002B63D1B8F1000F66D04246824968
:104DA0002046FFF793FF0546069B3D44002B6DD13F
:104DB000049B002B73D1F30700F1E58031462046B8
:104DC000FFF796FFD9E00746C3E7784B186800283D
:104DD000CAD0774B4FF47A794FF461614FF03C0CB5
:104DE0001B68B5FBF3F5B5FBF0F300FB135509FBAE
:104DF00005F5B3FBF1F2B5FBF0FE01FB123100FB50
:104E00001E55B1FBFCF309FB05F50CFB1311B5FBBB
:104E1000F0F5009120466749CDE901E5FFF756FF1F
:104E2000A2E706F00803EBB1634B2046634953F851
:104E30002B20FFF74BFF0546B8F1000F05D0424687
:104E400059492046FFF742FF0544BAF1000FABD0A5
:104E500052465B492046FFF739FF0544A4E74FF06F
:104E6000000AE1E706F00805E6E745469CE7BAF1E7
:104E7000010F069B06D1002B65D1049B002B7CD033
:104E800000250CE0002BF8D04E485DE04E48069B14
:104E900022464E490EF065FB049B002B69D0DFF8DB
:104EA0003081DFF83091049F4FF0000A31462046F0
:104EB000102F28BF1027FFF71BFF554546DC059B29
:104EC0004FF0010A494620461A78FFF7FFFE1AF014
:104ED000070F03D141462046FFF7F8FE57453CD95E
:104EE000059B4946204613F80A20FFF7EFFE0AF11A
:104EF000010ABAF1100FEAD14FF0000A36492046F4
:104F0000FFF7E4FE5246059B20469A5C334B995CC2
:104F100011F0970F324908BF2E22FFF7D7FE0AF192
:104F2000010ABAF1100F1DD01AF0070F03D1414644
:104F30002046FFF7CBFE57455246E4D8414620466F
:104F4000FFF7C4FEEBE720485D46A0E74146204658
:104F50000AF1010AFFF7BAFEAFE722492046FFF740
:104F6000B5FEC4E7059B3B440593049BDB1B049300
:104F700099D1BBF1000F7FF41EAF204609B0BDE808
:104F8000F04F0EF0B1BF074A20460549FFF79EFEDD
:104F900014E700BF2298010826980108208801081C
:104FA000379D01081D9801084B9801087C190024C1
:104FB000781900242F980108348801084F980108B7
:104FC00055980108473F0108113F0108033F0108B8
:104FD00000B401085A98010860980108659001081A
:104FE0004AA30108FEB3010842F20F73114A8B4233
:104FF00073B5044628BF0B460568052168460EF0C8
:1050000027FB636806460B2228465B680A490EF0B8
:105010005DFF63683246694628465B680EF056FFBE
:1050200063681B2205495B6828460EF04FFF02B0FB
:1050300070BD00BFE5A901087E98010862980108CB
:1050400000210123064A904206D8064A01B90123ED
:105050001360054B18607047400801215B00F2E7C0
:1050600040420F00781900247C190024014B036092
:1050700001207047488801082DE9F8430646FBF7F0
:105080003FF90546EFF31188102383F31288BFF32D
:105090006F8F114B1C68D3F804909C4208BF00240A
:1050A00034B988F31188BFF36F8F2046BDE8F883C9
:1050B000A7683846FBF724F9A84206D12A463946A4
:1050C000304609F06DFD0028EBD04C4501D0246836
:1050D000E6E70024E5E700BFC40600242DE9F0411F
:1050E0000E461546FFF7C8FF044640B3C36833B306
:1050F0001F6927B3062E07D0072E23D02A46314634
:105100003B46BDE8F0411847838A3BB92A46314601
:10511000B84750B9A38A0133A38206E04FF6FF7265
:10512000934204D00133A3820020BDE8F0811648E9
:1051300003685B0703D0154A01210EF0B4FE6FF03F
:105140001500F2E745B12A7832B100223146828259
:105150002A461B699847E7E7A38A012B08D12A460C
:1051600007212046B8470028DFD1A38A013BD3E7B7
:105170000BB1013BD7E70448036813F0060FDED0FC
:10518000034A0221D9E700BFA40A0024BA98010803
:10519000DC98010810B5044608B1806850B913487E
:1051A00003685A0703D0124A01210EF07CFE6FF00B
:1051B000150010BDFFF760FF28B10C4803685B07BE
:1051C000F5D00C4AF0E7A082EFF31181102383F3AE
:1051D0001288BFF36F8F084B5A68C4E9003214601D
:1051E0005C6081F31188BFF36F8FE2E7A40A0024AB
:1051F000FA98010813990108C406002410B5044662
:1052000005F040F80349024620460FF0E4F800207C
:1052100010BD00BF5399010837B51346002205465B
:105220000A21019201AA58680FF030FA019C4CB98A
:1052300020EAE0700A2180FB010108F0EDFB204626
:1052400003B030BD2246034928460FF0E0F8019C28
:10525000F5E700BF7F990108034A044908B50FF03C
:10526000BAF8002008BD00BF6F9A0108769A0108BD
:105270002DE9F34117460023044601AA0A21B86824
:1052800001930FF003FA019DC6B24DB12A461449AD
:1052900020460FF0BCF8019D284602B0BDE8F08121
:1052A000042E09D932460F49204601250FF0AFF8E8
:1052B00020460FF0E7F8EFE77868FFF749FBB0F119
:1052C000000804DA7A68204607490FF0A0F80021A8
:1052D00033460FFA88F208460EF06BFDDCE700BF9C
:1052E000A19A0108C89A0108DF9A010810B504467E
:1052F00004F0AAFF0749024620460FF06CF820464A
:1053000005490FF068F82146044808F05DFC0020CC
:1053100010BD00BF719B0108909B0108215300083C
:10532000F0B58FB004460D46D0F8A07012F031FAF7
:10533000064608F08DFB204B2049002E08BF1E4674
:105340001F4A2346844218BF0A46009628461D4934
:105350000FF041F828461C49D4E90A23CDE900237F
:1053600094F90E30227B0FF036F806A92022204651
:1053700007F08EFF636E0246144928460FF02BF8A3
:1053800005A9204612F015FA024628B11049284610
:105390000FF021F80FB0F0BD059B64222846F91AE2
:1053A0004A4300910B49B2FBF7F2CDE901723A464C
:1053B0000FF011F8EEE700BF9A9B010800B4010856
:1053C00024AD01089D9B0108A99B0108D59B0108FC
:1053D000EC9B0108199C0108F0B591B0002504462A
:1053E0001C2208AF294609A8144E09F03FFA1A22D8
:1053F0002021384609F03AFA2146114808F0E4FB2A
:1054000007AA4FF40061304612F0C7F9079A6423E7
:105410002046C2F5006100974B43DB0A05934FF429
:105420000063CDE90313CDE9013206492B46A6F10D
:1054300040020EF0D0FF284611B0F0BD402B0024F2
:10544000495400086A9C010870B5044688B00D46AE
:10545000D0F8A06007A912F0ACF9024628B10F49B4
:1054600028460EF0B8FF08B070BD204612F091F942
:10547000079B64220096F11A4A43B2FBF6F2CDE98B
:105480000131074B0749002818BF03462846CDE9DC
:10549000036222460EF09FFFE5E700BFEC9B010888
:1054A0009A9B0108B39C01082DE9F04387B005469B
:1054B0001A4F6846DFF8688007F078FA1423009ED8
:1054C0000821184A03FB006628460EF077FFDFF834
:1054D0005890009CB44203D3002007B0BDE8F0838D
:1054E00023680BB11A7832B923463A46142101A831
:1054F00009F02CFA01AB4246082128460EF05EFF67
:105500002046143412F067F8084B094A0821002895
:1055100008BF4B4628460EF051FFDBE7309D0108DF
:10552000359D0108269D01081D9D0108179D010854
:10553000A2A301082DE9F04114468846074610222F
:105540000021606809F0FCFEB8F1020F064607D89A
:105550002023254A082138460EF030FF336816E034
:105560000A220021A06809F0EBFE1F4AC5B20821FB
:1055700038462B460EF022FFB8F1030F1AD1102D3A
:105580000CD0202DEAD0082D0BD13378DBB2174A8E
:10559000082138460EF012FF002009E033889BB244
:1055A000F5E73846124A08210EF008FF6FF01500A3
:1055B000BDE8F08110220021E06809F0C1FE0D4A2B
:1055C00003460446082138460EF0F8FE102D06D09A
:1055D000202D07D0082DE4D1E4B23470DCE7A4B26A
:1055E0003480D9E73460D7E7699D0108949D0108AC
:1055F0007E9D0108A59D01082DE9F04F4FF0FF3574
:10560000574B9146202601222C46DFF858A185B041
:10561000074688461A6002F08DFE494652464046CB
:1056200002F0ACFE411C06D16A1C4DD14E493846F1
:105630000EF0EDFE1BE073281ED0772830D06128D5
:1056400015D1DFF828B110220021DBF8000009F0A5
:1056500077FE05460028E0D10FF08FFD0368162B7A
:10566000DBD1DBF80020424938460EF0D0FE6FF067
:10567000150005B0BDE8F08F0022DFF8F0B011464C
:10568000DBF8000009F05CFE04460028C5D10FF0ED
:1056900074FD0368162BC0D1DBF800203549E3E721
:1056A0000022DFF8C8B01146DBF8000009F048FE20
:1056B00006460028B1D10FF060FD0368162BACD16F
:1056C000DBF800202C49CFE7631C01D12B49AEE762
:1056D0005FFA86F8C6F3C406002C3FD06B46294615
:1056E000A6EB050C1A460CE0B8F1100F1DD0B8F16E
:1056F000200F20D0B8F1080F2AD108781870314453
:105700003344A64203D80CEB01001028ECD9102C2E
:10571000A1462946384628BF4FF0100910354B46A0
:10572000A4EB090401F002F8D6E7088880B21870EB
:10573000000A5870E3E708684FEA102E187083F8E3
:1057400001E04FEA104E000E83F802E0D870D6E771
:105750000B4A082138460EF031FE88E7204688E7DC
:1057600030070024F39D0108FA9D0108281D00243C
:10577000B99D0108CC9D0108DF9D0108179E010815
:105780007E9D010870B50F4E04460D46337871B109
:1057900023B10D49BDE870400EF039BE01233370CE
:1057A0000A4920460EF017FE0123337004E083F00F
:1057B00001033370002BF3D129462046BDE8704029
:1057C0000EF07DBE401F0024319E01086C9E010832
:1057D00070B504463B480378182B02D10B78112B87
:1057E00031D0013A0B468D18AB4225D18B5C0A783B
:1057F0000370A2F13003344C092B04D922F02003AA
:10580000413B052B04D823683049CA540133236037
:105810002368022B33D1102200212C4809F090FD7F
:105820002B4A136803F8010B13602A4A13680133EB
:1058300013600023236022E013F8016B182ED3D1EC
:105840001E78112ED0D1234D204623492A680EF010
:10585000C2FD20460021FFF795FF204B187870B954
:105860001F4A2B681168042B0ADC08B111602B60F9
:1058700013F003010BD1126813681BBA136070BDDB
:105880000868043B00BA41F8040B0120EBE75B42D7
:1058900003F0030358BF5942022904D11268138848
:1058A0005BBA9BB2EAE70329E9D1106802681104E8
:1058B000C2F3074302F47F4201F47F010B43134319
:1058C0000360DCE7411F002480190024431F0024EB
:1058D0008C19002484190024969E0108421F00247C
:1058E000881900242DE9F84F00230C462A49064662
:1058F000DFF8A88015460B60DFF8A4902949DFF88F
:10590000A8B088F800300B60012C2F4655F804AF82
:105910001ED902224946504609F042F980B99AF848
:105920000220003A18BF0122924420490222504628
:1059300009F036F930B9012388F80030013CE3E77B
:105940000022F1E749465046FAF74EFDA8B9043760
:1059500000227868114609F04DFC0022144B1146D4
:105960001860786809F046FC124B134918603046FD
:10597000FFF708FF0020BDE8F88F9AF800202D2AD5
:10598000E6D19AF80120002AE2D052465946304624
:105990000EF021FDD2E700BF80190024421F002431
:1059A000B09E010884190024B69E0108B39E010828
:1059B0008C19002488190024D157000807B50A481B
:1059C00011F009FE60B10423084A0749009301233E
:1059D0001268074800F012FF002003B05DF804FBD6
:1059E0006FF01200F9E700BF187F01084089010835
:1059F000EC84010810B54468A3604023C4E9001298
:105A000042680821D36402F15803D16202F15001C7
:105A100013630023146853631364116153611362A9
:105A2000C2F8D030C2E90E33C2E91133C2E90633FD
:105A3000C2E90933A36823B19B6C13B10449204622
:105A40009847A3689B6A0BB120469847002010BD79
:105A5000555A00082DE9F74304460D4683685B6CF0
:105A600003B19847A3685B6B0BBB4FF0000905F1CE
:105A70003008EA6C01A940460EF0A5F80746002858
:105A800036D0A36801999B693BB3024620469847EC
:105A9000064628B3314640460EF0B5F8B7424FF0FF
:105AA0000109E6D0D5E901310020984703E02046FE
:105AB00098470028D9D1A3685B6A63BB05F110073A
:105AC000EA6A01A938460EF0D2F8064650BB2046D5
:105AD0000EF0D1FAC5F8D0602FE06FF05706D9E785
:105AE000014640460EF08FF8B9F1000FE3D0D9E738
:105AF0001648036813F0060F03D0154A02210EF072
:105B0000D2F9A3689B69002BEED001220DF10301AD
:105B100020469847E8E7204698470028CED103B0B2
:105B2000BDE8F083A36801995B695BB1024620463A
:105B30009847014638460EF0B9F80120D5E9013101
:105B40009847ECE76FF05701F4E700BFC80A00245C
:105B50001DA0010810B581680446183101F034FB1E
:105B6000A1682046024A1831BDE8104001F0BABAD7
:105B70005FA0010801490EF01CBB00BF4E9C01084C
:105B8000F7B5044680680D46D0F878325A0705D537
:105B900000210EF05CFBE0680FF0A0F9E368DB6821
:105BA00073B9002D3BD0A66806F1560738460EF0B3
:105BB0000DFB002835D0394606F5AB7008F092FF92
:105BC000A2680DF106032946E06856320FF089F904
:105BD00058B9A06800F5AB71563008F083FFA06893
:105BE00056300EF0F3FAADF8060020460EF00DFE2A
:105BF000A368D3F874329B0603D50B4960690EF095
:105C0000D8FA204601F08AF8A268BDF8063020468E
:105C1000A2F85230A268A2F850300EF09AFD03B0FC
:105C2000F0BD86F85601CBE7588601082DE9F04F04
:105C3000A7B004465422002111A808F017FE002343
:105C40002046CDE90533A368563302930EF0E4FDF8
:105C500020460EF067FD10B96069FFF78BFFA06862
:105C600014220021002618304FF0FF3708F0FEFD07
:105C7000204600F09BFFA168E068B246B1F85020D2
:105C80000DF144085631B3463546B1460FF060F980
:105C900020460FF0DFF90396DDE90532012A6DD0C9
:105CA000132B6ED85FBBBBF1000F0AD020460FF05C
:105CB000F2F9A268142311A956320DEB030000F08B
:105CC00029FEB9F1000F0CD099F81130FE2B08D144
:105CD000059B26AA02EB830252F8542C0AB1013329
:105CE0000593A068059D436A002B40F0B680CEB1B5
:105CF000C3699E422DD000F118050D9624E00223C1
:105D0000029A414606A800F005FED8F8042006993C
:105D10000346029231B101290AD148B16D4A2046A9
:105D20000EF02BFE6FF00705284627B0BDE8F08F78
:105D3000059B002B34D0D8F8000001F065FA98B12B
:105D400066B1A5680D9618350CAE0FCE0FC5336839
